{
  "_format": "hh-sol-artifact-1",
  "contractName": "NullsPetToken",
  "sourceName": "contracts/v2/market/NullsPetToken.sol",
  "abi": [
    {
      "inputs": [],
      "stateMutability": "nonpayable",
      "type": "constructor"
    },
    {
      "anonymous": false,
      "inputs": [
        {
          "indexed": true,
          "internalType": "address",
          "name": "owner",
          "type": "address"
        },
        {
          "indexed": true,
          "internalType": "address",
          "name": "approved",
          "type": "address"
        },
        {
          "indexed": true,
          "internalType": "uint256",
          "name": "tokenId",
          "type": "uint256"
        }
      ],
      "name": "Approval",
      "type": "event"
    },
    {
      "anonymous": false,
      "inputs": [
        {
          "indexed": true,
          "internalType": "address",
          "name": "owner",
          "type": "address"
        },
        {
          "indexed": true,
          "internalType": "address",
          "name": "operator",
          "type": "address"
        },
        {
          "indexed": false,
          "internalType": "bool",
          "name": "approved",
          "type": "bool"
        }
      ],
      "name": "ApprovalForAll",
      "type": "event"
    },
    {
      "anonymous": false,
      "inputs": [
        {
          "indexed": true,
          "internalType": "address",
          "name": "previousOwner",
          "type": "address"
        },
        {
          "indexed": true,
          "internalType": "address",
          "name": "newOwner",
          "type": "address"
        }
      ],
      "name": "OwnershipTransferred",
      "type": "event"
    },
    {
      "anonymous": false,
      "inputs": [
        {
          "indexed": false,
          "internalType": "uint256",
          "name": "petId",
          "type": "uint256"
        },
        {
          "indexed": false,
          "internalType": "uint256",
          "name": "count",
          "type": "uint256"
        },
        {
          "indexed": false,
          "internalType": "address",
          "name": "tokenAddr",
          "type": "address"
        },
        {
          "indexed": false,
          "internalType": "uint256",
          "name": "price",
          "type": "uint256"
        },
        {
          "indexed": false,
          "internalType": "address",
          "name": "seller",
          "type": "address"
        }
      ],
      "name": "SellPet",
      "type": "event"
    },
    {
      "anonymous": false,
      "inputs": [
        {
          "indexed": false,
          "internalType": "uint256",
          "name": "petId",
          "type": "uint256"
        },
        {
          "indexed": false,
          "internalType": "uint256",
          "name": "amount",
          "type": "uint256"
        },
        {
          "indexed": false,
          "internalType": "address",
          "name": "seller",
          "type": "address"
        },
        {
          "indexed": false,
          "internalType": "address",
          "name": "buyer",
          "type": "address"
        }
      ],
      "name": "SuccessSell",
      "type": "event"
    },
    {
      "anonymous": false,
      "inputs": [
        {
          "indexed": true,
          "internalType": "address",
          "name": "from",
          "type": "address"
        },
        {
          "indexed": true,
          "internalType": "address",
          "name": "to",
          "type": "address"
        },
        {
          "indexed": true,
          "internalType": "uint256",
          "name": "tokenId",
          "type": "uint256"
        }
      ],
      "name": "Transfer",
      "type": "event"
    },
    {
      "anonymous": false,
      "inputs": [
        {
          "indexed": false,
          "internalType": "uint256",
          "name": "petId",
          "type": "uint256"
        },
        {
          "indexed": false,
          "internalType": "uint256",
          "name": "count",
          "type": "uint256"
        },
        {
          "indexed": false,
          "internalType": "address",
          "name": "seller",
          "type": "address"
        }
      ],
      "name": "UnSellPet",
      "type": "event"
    },
    {
      "inputs": [
        {
          "internalType": "uint256",
          "name": "",
          "type": "uint256"
        }
      ],
      "name": "Types",
      "outputs": [
        {
          "internalType": "bytes32",
          "name": "",
          "type": "bytes32"
        }
      ],
      "stateMutability": "view",
      "type": "function"
    },
    {
      "inputs": [
        {
          "internalType": "address",
          "name": "to",
          "type": "address"
        },
        {
          "internalType": "uint256",
          "name": "tokenId",
          "type": "uint256"
        }
      ],
      "name": "approve",
      "outputs": [],
      "stateMutability": "nonpayable",
      "type": "function"
    },
    {
      "inputs": [
        {
          "internalType": "address",
          "name": "owner",
          "type": "address"
        }
      ],
      "name": "balanceOf",
      "outputs": [
        {
          "internalType": "uint256",
          "name": "",
          "type": "uint256"
        }
      ],
      "stateMutability": "view",
      "type": "function"
    },
    {
      "inputs": [
        {
          "internalType": "uint256",
          "name": "petId",
          "type": "uint256"
        }
      ],
      "name": "buyPet",
      "outputs": [],
      "stateMutability": "nonpayable",
      "type": "function"
    },
    {
      "inputs": [
        {
          "internalType": "uint256",
          "name": "tokenId",
          "type": "uint256"
        }
      ],
      "name": "getApproved",
      "outputs": [
        {
          "internalType": "address",
          "name": "",
          "type": "address"
        }
      ],
      "stateMutability": "view",
      "type": "function"
    },
    {
      "inputs": [
        {
          "internalType": "uint256",
          "name": "petId",
          "type": "uint256"
        }
      ],
      "name": "getPetSellInfos",
      "outputs": [
        {
          "components": [
            {
              "internalType": "bool",
              "name": "isSell",
              "type": "bool"
            },
            {
              "internalType": "address",
              "name": "token",
              "type": "address"
            },
            {
              "internalType": "uint256",
              "name": "price",
              "type": "uint256"
            },
            {
              "internalType": "address",
              "name": "seller",
              "type": "address"
            },
            {
              "internalType": "uint256",
              "name": "count",
              "type": "uint256"
            }
          ],
          "internalType": "struct INullWorldMarket.SellInfo",
          "name": "sellInfo",
          "type": "tuple"
        }
      ],
      "stateMutability": "view",
      "type": "function"
    },
    {
      "inputs": [
        {
          "internalType": "address",
          "name": "tokenAddr",
          "type": "address"
        }
      ],
      "name": "getSupportedToken",
      "outputs": [
        {
          "components": [
            {
              "internalType": "bool",
              "name": "supported",
              "type": "bool"
            },
            {
              "internalType": "uint256",
              "name": "feeRate",
              "type": "uint256"
            }
          ],
          "internalType": "struct INullWorldMarket.Token",
          "name": "tokenInfo",
          "type": "tuple"
        }
      ],
      "stateMutability": "view",
      "type": "function"
    },
    {
      "inputs": [
        {
          "internalType": "address",
          "name": "owner",
          "type": "address"
        },
        {
          "internalType": "address",
          "name": "operator",
          "type": "address"
        }
      ],
      "name": "isApprovedForAll",
      "outputs": [
        {
          "internalType": "bool",
          "name": "",
          "type": "bool"
        }
      ],
      "stateMutability": "view",
      "type": "function"
    },
    {
      "inputs": [
        {
          "internalType": "address",
          "name": "player",
          "type": "address"
        },
        {
          "internalType": "bytes32",
          "name": "tv",
          "type": "bytes32"
        }
      ],
      "name": "mint",
      "outputs": [
        {
          "internalType": "uint256",
          "name": "tokenId",
          "type": "uint256"
        }
      ],
      "stateMutability": "nonpayable",
      "type": "function"
    },
    {
      "inputs": [
        {
          "internalType": "address",
          "name": "oper",
          "type": "address"
        }
      ],
      "name": "modifyOper",
      "outputs": [],
      "stateMutability": "nonpayable",
      "type": "function"
    },
    {
      "inputs": [],
      "name": "name",
      "outputs": [
        {
          "internalType": "string",
          "name": "",
          "type": "string"
        }
      ],
      "stateMutability": "view",
      "type": "function"
    },
    {
      "inputs": [],
      "name": "owner",
      "outputs": [
        {
          "internalType": "address",
          "name": "",
          "type": "address"
        }
      ],
      "stateMutability": "view",
      "type": "function"
    },
    {
      "inputs": [
        {
          "internalType": "uint256",
          "name": "tokenId",
          "type": "uint256"
        }
      ],
      "name": "ownerOf",
      "outputs": [
        {
          "internalType": "address",
          "name": "",
          "type": "address"
        }
      ],
      "stateMutability": "view",
      "type": "function"
    },
    {
      "inputs": [],
      "name": "renounceOwnership",
      "outputs": [],
      "stateMutability": "nonpayable",
      "type": "function"
    },
    {
      "inputs": [
        {
          "internalType": "address",
          "name": "from",
          "type": "address"
        },
        {
          "internalType": "address",
          "name": "to",
          "type": "address"
        },
        {
          "internalType": "uint256",
          "name": "tokenId",
          "type": "uint256"
        }
      ],
      "name": "safeTransferFrom",
      "outputs": [],
      "stateMutability": "nonpayable",
      "type": "function"
    },
    {
      "inputs": [
        {
          "internalType": "address",
          "name": "from",
          "type": "address"
        },
        {
          "internalType": "address",
          "name": "to",
          "type": "address"
        },
        {
          "internalType": "uint256",
          "name": "tokenId",
          "type": "uint256"
        },
        {
          "internalType": "bytes",
          "name": "_data",
          "type": "bytes"
        }
      ],
      "name": "safeTransferFrom",
      "outputs": [],
      "stateMutability": "nonpayable",
      "type": "function"
    },
    {
      "inputs": [
        {
          "internalType": "uint256",
          "name": "petId",
          "type": "uint256"
        },
        {
          "internalType": "address",
          "name": "tokenAddr",
          "type": "address"
        },
        {
          "internalType": "uint256",
          "name": "price",
          "type": "uint256"
        }
      ],
      "name": "sellPet",
      "outputs": [],
      "stateMutability": "nonpayable",
      "type": "function"
    },
    {
      "inputs": [
        {
          "internalType": "address",
          "name": "operator",
          "type": "address"
        },
        {
          "internalType": "bool",
          "name": "approved",
          "type": "bool"
        }
      ],
      "name": "setApprovalForAll",
      "outputs": [],
      "stateMutability": "nonpayable",
      "type": "function"
    },
    {
      "inputs": [
        {
          "internalType": "string",
          "name": "uri",
          "type": "string"
        }
      ],
      "name": "setBaseURI",
      "outputs": [],
      "stateMutability": "nonpayable",
      "type": "function"
    },
    {
      "inputs": [
        {
          "internalType": "address",
          "name": "tokenAddr",
          "type": "address"
        },
        {
          "internalType": "bool",
          "name": "supported",
          "type": "bool"
        },
        {
          "internalType": "uint256",
          "name": "feeRate",
          "type": "uint256"
        }
      ],
      "name": "setSupportedToken",
      "outputs": [],
      "stateMutability": "nonpayable",
      "type": "function"
    },
    {
      "inputs": [
        {
          "internalType": "address",
          "name": "proxy",
          "type": "address"
        }
      ],
      "name": "setTransferProxy",
      "outputs": [],
      "stateMutability": "nonpayable",
      "type": "function"
    },
    {
      "inputs": [
        {
          "internalType": "bytes4",
          "name": "interfaceId",
          "type": "bytes4"
        }
      ],
      "name": "supportsInterface",
      "outputs": [
        {
          "internalType": "bool",
          "name": "",
          "type": "bool"
        }
      ],
      "stateMutability": "view",
      "type": "function"
    },
    {
      "inputs": [],
      "name": "symbol",
      "outputs": [
        {
          "internalType": "string",
          "name": "",
          "type": "string"
        }
      ],
      "stateMutability": "view",
      "type": "function"
    },
    {
      "inputs": [
        {
          "internalType": "uint256",
          "name": "tokenId",
          "type": "uint256"
        }
      ],
      "name": "tokenURI",
      "outputs": [
        {
          "internalType": "string",
          "name": "",
          "type": "string"
        }
      ],
      "stateMutability": "view",
      "type": "function"
    },
    {
      "inputs": [
        {
          "internalType": "address",
          "name": "from",
          "type": "address"
        },
        {
          "internalType": "address",
          "name": "to",
          "type": "address"
        },
        {
          "internalType": "uint256",
          "name": "tokenId",
          "type": "uint256"
        }
      ],
      "name": "transferFrom",
      "outputs": [],
      "stateMutability": "nonpayable",
      "type": "function"
    },
    {
      "inputs": [
        {
          "internalType": "address",
          "name": "newOwner",
          "type": "address"
        }
      ],
      "name": "transferOwnership",
      "outputs": [],
      "stateMutability": "nonpayable",
      "type": "function"
    },
    {
      "inputs": [
        {
          "internalType": "uint256",
          "name": "petId",
          "type": "uint256"
        }
      ],
      "name": "unSellPet",
      "outputs": [],
      "stateMutability": "nonpayable",
      "type": "function"
    }
  ],
  "bytecode": "0x60806040526040518060400160405280601981526020017f68747470733a2f2f6e756c6c732e776f726c642f706574732f00000000000000815250600c90805190602001906200005192919062000235565b503480156200005f57600080fd5b506040518060400160405280600d81526020017f4e756c6c73506574546f6b656e000000000000000000000000000000000000008152506040518060400160405280600881526020017f4e756c6c735065740000000000000000000000000000000000000000000000008152508160009080519060200190620000e492919062000235565b508060019080519060200190620000fd92919062000235565b50505062000120620001146200016760201b60201c565b6200016f60201b60201c565b33600b60006101000a81548173ffffffffffffffffffffffffffffffffffffffff021916908373ffffffffffffffffffffffffffffffffffffffff1602179055506200034a565b600033905090565b6000600660009054906101000a900473ffffffffffffffffffffffffffffffffffffffff16905081600660006101000a81548173ffffffffffffffffffffffffffffffffffffffff021916908373ffffffffffffffffffffffffffffffffffffffff1602179055508173ffffffffffffffffffffffffffffffffffffffff168173ffffffffffffffffffffffffffffffffffffffff167f8be0079c531659141344cd1fd0a4f28419497f9722a3daafe3b4186f6b6457e060405160405180910390a35050565b8280546200024390620002e5565b90600052602060002090601f016020900481019282620002675760008555620002b3565b82601f106200028257805160ff1916838001178555620002b3565b82800160010185558215620002b3579182015b82811115620002b257825182559160200191906001019062000295565b5b509050620002c29190620002c6565b5090565b5b80821115620002e1576000816000905550600101620002c7565b5090565b60006002820490506001821680620002fe57607f821691505b602082108114156200031557620003146200031b565b5b50919050565b7f4e487b7100000000000000000000000000000000000000000000000000000000600052602260045260246000fd5b61472d806200035a6000396000f3fe608060405234801561001057600080fd5b50600436106101a95760003560e01c80635a898fbb116100f957806395d89b4111610097578063b88d4fde11610071578063b88d4fde146104c6578063c87b56dd146104e2578063e985e9c514610512578063f2fde38b14610542576101a9565b806395d89b41146104705780639edded111461048e578063a22cb465146104aa576101a9565b8063715018a6116100d3578063715018a6146103fc5780637ed41865146104065780638ae42905146104365780638da5cb5b14610452576101a9565b80635a898fbb146103805780636352211e1461039c57806370a08231146103cc576101a9565b806327526a031161016657806342842e0e1161014057806342842e0e146102fc57806354b6f9ac1461031857806355f804b31461034857806357f3526114610364576101a9565b806327526a03146102805780632a23e720146102b05780632cfd3005146102cc576101a9565b806301ffc9a7146101ae57806306fdde03146101de578063081812fc146101fc578063095ea7b31461022c5780631e6b12771461024857806323b872dd14610264575b600080fd5b6101c860048036038101906101c3919061327b565b61055e565b6040516101d591906138d8565b60405180910390f35b6101e6610640565b6040516101f3919061390e565b60405180910390f35b6102166004803603810190610211919061330e565b6106d2565b604051610223919061382c565b60405180910390f35b6102466004803603810190610241919061323f565b610757565b005b610262600480360381019061025d919061330e565b61086f565b005b61027e600480360381019061027991906130ae565b6109eb565b005b61029a60048036038101906102959190613049565b610a4b565b6040516102a79190613beb565b60405180910390f35b6102ca60048036038101906102c59190613337565b610ac9565b005b6102e660048036038101906102e19190613203565b610e5d565b6040516102f39190613c06565b60405180910390f35b610316600480360381019061031191906130ae565b610f21565b005b610332600480360381019061032d919061330e565b610f41565b60405161033f9190613bd0565b60405180910390f35b610362600480360381019061035d91906132cd565b611049565b005b61037e600480360381019061037991906131b4565b6110df565b005b61039a60048036038101906103959190613049565b61125b565b005b6103b660048036038101906103b1919061330e565b61131b565b6040516103c3919061382c565b60405180910390f35b6103e660048036038101906103e19190613049565b6113cd565b6040516103f39190613c06565b60405180910390f35b610404611485565b005b610420600480360381019061041b919061330e565b61150d565b60405161042d91906138f3565b60405180910390f35b610450600480360381019061044b9190613049565b611525565b005b61045a6115e5565b604051610467919061382c565b60405180910390f35b61047861160f565b604051610485919061390e565b60405180910390f35b6104a860048036038101906104a3919061330e565b6116a1565b005b6104c460048036038101906104bf9190613178565b611b2f565b005b6104e060048036038101906104db91906130fd565b611cb0565b005b6104fc60048036038101906104f7919061330e565b611d12565b604051610509919061390e565b60405180910390f35b61052c60048036038101906105279190613072565b611db9565b60405161053991906138d8565b60405180910390f35b61055c60048036038101906105579190613049565b611e4d565b005b60007f80ac58cd000000000000000000000000000000000000000000000000000000007bffffffffffffffffffffffffffffffffffffffffffffffffffffffff1916827bffffffffffffffffffffffffffffffffffffffffffffffffffffffff1916148061062957507f5b5e139f000000000000000000000000000000000000000000000000000000007bffffffffffffffffffffffffffffffffffffffffffffffffffffffff1916827bffffffffffffffffffffffffffffffffffffffffffffffffffffffff1916145b80610639575061063882611f45565b5b9050919050565b60606000805461064f90613f8f565b80601f016020809104026020016040519081016040528092919081815260200182805461067b90613f8f565b80156106c85780601f1061069d576101008083540402835291602001916106c8565b820191906000526020600020905b8154815290600101906020018083116106ab57829003601f168201915b5050505050905090565b60006106dd82611faf565b61071c576040517f08c379a000000000000000000000000000000000000000000000000000000000815260040161071390613a90565b60405180910390fd5b6004600083815260200190815260200160002060009054906101000a900473ffffffffffffffffffffffffffffffffffffffff169050919050565b60006107628261131b565b90508073ffffffffffffffffffffffffffffffffffffffff168373ffffffffffffffffffffffffffffffffffffffff1614156107d3576040517f08c379a00000000000000000000000000000000000000000000000000000000081526004016107ca90613b70565b60405180910390fd5b8073ffffffffffffffffffffffffffffffffffffffff166107f261201b565b73ffffffffffffffffffffffffffffffffffffffff16148061082157506108208161081b61201b565b611db9565b5b610860576040517f08c379a000000000000000000000000000000000000000000000000000000000815260040161085790613a10565b60405180910390fd5b61086a8383612023565b505050565b6000600960008381526020019081526020016000206040518060a00160405290816000820160009054906101000a900460ff161515151581526020016000820160019054906101000a900473ffffffffffffffffffffffffffffffffffffffff1673ffffffffffffffffffffffffffffffffffffffff1673ffffffffffffffffffffffffffffffffffffffff168152602001600182015481526020016002820160009054906101000a900473ffffffffffffffffffffffffffffffffffffffff1673ffffffffffffffffffffffffffffffffffffffff1673ffffffffffffffffffffffffffffffffffffffff16815260200160038201548152505090503373ffffffffffffffffffffffffffffffffffffffff16816060015173ffffffffffffffffffffffffffffffffffffffff16146109de576040517f08c379a00000000000000000000000000000000000000000000000000000000081526004016109d590613ad0565b60405180910390fd5b6109e7826120dc565b5050565b6109fc6109f661201b565b8261231c565b610a3b576040517f08c379a0000000000000000000000000000000000000000000000000000000008152600401610a3290613b90565b60405180910390fd5b610a468383836123fa565b505050565b610a53612ddf565b600860008373ffffffffffffffffffffffffffffffffffffffff1673ffffffffffffffffffffffffffffffffffffffff1681526020019081526020016000206040518060400160405290816000820160009054906101000a900460ff161515151581526020016001820154815250509050919050565b60011515600860008473ffffffffffffffffffffffffffffffffffffffff1673ffffffffffffffffffffffffffffffffffffffff16815260200190815260200160002060000160009054906101000a900460ff16151514610b5f576040517f08c379a0000000000000000000000000000000000000000000000000000000008152600401610b5690613bb0565b60405180910390fd5b610b6883612656565b6000600960008581526020019081526020016000206040518060a00160405290816000820160009054906101000a900460ff161515151581526020016000820160019054906101000a900473ffffffffffffffffffffffffffffffffffffffff1673ffffffffffffffffffffffffffffffffffffffff1673ffffffffffffffffffffffffffffffffffffffff168152602001600182015481526020016002820160009054906101000a900473ffffffffffffffffffffffffffffffffffffffff1673ffffffffffffffffffffffffffffffffffffffff1673ffffffffffffffffffffffffffffffffffffffff1681526020016003820154815250509050600015158160000151151514610cb0576040517f08c379a0000000000000000000000000000000000000000000000000000000008152600401610ca790613990565b60405180910390fd5b600181600001901515908115158152505082816020019073ffffffffffffffffffffffffffffffffffffffff16908173ffffffffffffffffffffffffffffffffffffffff16815250508181604001818152505033816060019073ffffffffffffffffffffffffffffffffffffffff16908173ffffffffffffffffffffffffffffffffffffffff1681525050806009600086815260200190815260200160002060008201518160000160006101000a81548160ff02191690831515021790555060208201518160000160016101000a81548173ffffffffffffffffffffffffffffffffffffffff021916908373ffffffffffffffffffffffffffffffffffffffff1602179055506040820151816001015560608201518160020160006101000a81548173ffffffffffffffffffffffffffffffffffffffff021916908373ffffffffffffffffffffffffffffffffffffffff160217905550608082015181600301559050507f2f21f3dfec2a3dcb031f7d31394c954804d784192f20a9bd9b2811fec965d1c0848260800151858533604051610e4f959493929190613c9d565b60405180910390a150505050565b6000600b60009054906101000a900473ffffffffffffffffffffffffffffffffffffffff1673ffffffffffffffffffffffffffffffffffffffff163373ffffffffffffffffffffffffffffffffffffffff1614610eef576040517f08c379a0000000000000000000000000000000000000000000000000000000008152600401610ee690613af0565b60405180910390fd5b610ef76126a9565b905081600d600083815260200190815260200160002081905550610f1b83826126c4565b92915050565b610f3c83838360405180602001604052806000815250611cb0565b505050565b610f49612dfb565b600960008381526020019081526020016000206040518060a00160405290816000820160009054906101000a900460ff161515151581526020016000820160019054906101000a900473ffffffffffffffffffffffffffffffffffffffff1673ffffffffffffffffffffffffffffffffffffffff1673ffffffffffffffffffffffffffffffffffffffff168152602001600182015481526020016002820160009054906101000a900473ffffffffffffffffffffffffffffffffffffffff1673ffffffffffffffffffffffffffffffffffffffff1673ffffffffffffffffffffffffffffffffffffffff1681526020016003820154815250509050919050565b61105161201b565b73ffffffffffffffffffffffffffffffffffffffff1661106f6115e5565b73ffffffffffffffffffffffffffffffffffffffff16146110c5576040517f08c379a00000000000000000000000000000000000000000000000000000000081526004016110bc90613ab0565b60405180910390fd5b80600c90805190602001906110db929190612e58565b5050565b6110e761201b565b73ffffffffffffffffffffffffffffffffffffffff166111056115e5565b73ffffffffffffffffffffffffffffffffffffffff161461115b576040517f08c379a000000000000000000000000000000000000000000000000000000000815260040161115290613ab0565b60405180910390fd5b6000600860008573ffffffffffffffffffffffffffffffffffffffff1673ffffffffffffffffffffffffffffffffffffffff1681526020019081526020016000206040518060400160405290816000820160009054906101000a900460ff161515151581526020016001820154815250509050828160000190151590811515815250508181602001818152505080600860008673ffffffffffffffffffffffffffffffffffffffff1673ffffffffffffffffffffffffffffffffffffffff16815260200190815260200160002060008201518160000160006101000a81548160ff0219169083151502179055506020820151816001015590505050505050565b61126361201b565b73ffffffffffffffffffffffffffffffffffffffff166112816115e5565b73ffffffffffffffffffffffffffffffffffffffff16146112d7576040517f08c379a00000000000000000000000000000000000000000000000000000000081526004016112ce90613ab0565b60405180910390fd5b80600b60006101000a81548173ffffffffffffffffffffffffffffffffffffffff021916908373ffffffffffffffffffffffffffffffffffffffff16021790555050565b6000806002600084815260200190815260200160002060009054906101000a900473ffffffffffffffffffffffffffffffffffffffff169050600073ffffffffffffffffffffffffffffffffffffffff168173ffffffffffffffffffffffffffffffffffffffff1614156113c4576040517f08c379a00000000000000000000000000000000000000000000000000000000081526004016113bb90613a50565b60405180910390fd5b80915050919050565b60008073ffffffffffffffffffffffffffffffffffffffff168273ffffffffffffffffffffffffffffffffffffffff16141561143e576040517f08c379a000000000000000000000000000000000000000000000000000000000815260040161143590613a30565b60405180910390fd5b600360008373ffffffffffffffffffffffffffffffffffffffff1673ffffffffffffffffffffffffffffffffffffffff168152602001908152602001600020549050919050565b61148d61201b565b73ffffffffffffffffffffffffffffffffffffffff166114ab6115e5565b73ffffffffffffffffffffffffffffffffffffffff1614611501576040517f08c379a00000000000000000000000000000000000000000000000000000000081526004016114f890613ab0565b60405180910390fd5b61150b6000612892565b565b600d6020528060005260406000206000915090505481565b61152d61201b565b73ffffffffffffffffffffffffffffffffffffffff1661154b6115e5565b73ffffffffffffffffffffffffffffffffffffffff16146115a1576040517f08c379a000000000000000000000000000000000000000000000000000000000815260040161159890613ab0565b60405180910390fd5b80600760006101000a81548173ffffffffffffffffffffffffffffffffffffffff021916908373ffffffffffffffffffffffffffffffffffffffff16021790555050565b6000600660009054906101000a900473ffffffffffffffffffffffffffffffffffffffff16905090565b60606001805461161e90613f8f565b80601f016020809104026020016040519081016040528092919081815260200182805461164a90613f8f565b80156116975780601f1061166c57610100808354040283529160200191611697565b820191906000526020600020905b81548152906001019060200180831161167a57829003601f168201915b5050505050905090565b6000600960008381526020019081526020016000206040518060a00160405290816000820160009054906101000a900460ff161515151581526020016000820160019054906101000a900473ffffffffffffffffffffffffffffffffffffffff1673ffffffffffffffffffffffffffffffffffffffff1673ffffffffffffffffffffffffffffffffffffffff168152602001600182015481526020016002820160009054906101000a900473ffffffffffffffffffffffffffffffffffffffff1673ffffffffffffffffffffffffffffffffffffffff1673ffffffffffffffffffffffffffffffffffffffff168152602001600382015481525050905080600001516117e2576040517f08c379a00000000000000000000000000000000000000000000000000000000081526004016117d990613b50565b60405180910390fd5b600081604001519050600060086000846020015173ffffffffffffffffffffffffffffffffffffffff1673ffffffffffffffffffffffffffffffffffffffff1681526020019081526020016000206040518060400160405290816000820160009054906101000a900460ff16151515158152602001600182015481525050905060006127108260200151846118779190613e41565b6118819190613e10565b9050808361188f9190613e9b565b9250600081111561193957600760009054906101000a900473ffffffffffffffffffffffffffffffffffffffff1673ffffffffffffffffffffffffffffffffffffffff16630a1b0b918560200151336118e66115e5565b876040518563ffffffff1660e01b81526004016119069493929190613847565b600060405180830381600087803b15801561192057600080fd5b505af1158015611934573d6000803e3d6000fd5b505050505b600760009054906101000a900473ffffffffffffffffffffffffffffffffffffffff1673ffffffffffffffffffffffffffffffffffffffff16630a1b0b918560200151338760600151876040518563ffffffff1660e01b81526004016119a29493929190613847565b600060405180830381600087803b1580156119bc57600080fd5b505af11580156119d0573d6000803e3d6000fd5b5050505060008460000190151590811515815250506001846080018181516119f89190613dba565b91508181525050836009600087815260200190815260200160002060008201518160000160006101000a81548160ff02191690831515021790555060208201518160000160016101000a81548173ffffffffffffffffffffffffffffffffffffffff021916908373ffffffffffffffffffffffffffffffffffffffff1602179055506040820151816001015560608201518160020160006101000a81548173ffffffffffffffffffffffffffffffffffffffff021916908373ffffffffffffffffffffffffffffffffffffffff16021790555060808201518160030155905050611ae784606001513387612958565b7f71f8fb2c2ae0a3da71951295dce9fefb91901b4672a14932d0344f9b7aa945f98584866060015133604051611b209493929190613c58565b60405180910390a15050505050565b611b3761201b565b73ffffffffffffffffffffffffffffffffffffffff168273ffffffffffffffffffffffffffffffffffffffff161415611ba5576040517f08c379a0000000000000000000000000000000000000000000000000000000008152600401611b9c906139d0565b60405180910390fd5b8060056000611bb261201b565b73ffffffffffffffffffffffffffffffffffffffff1673ffffffffffffffffffffffffffffffffffffffff16815260200190815260200160002060008473ffffffffffffffffffffffffffffffffffffffff1673ffffffffffffffffffffffffffffffffffffffff16815260200190815260200160002060006101000a81548160ff0219169083151502179055508173ffffffffffffffffffffffffffffffffffffffff16611c5f61201b565b73ffffffffffffffffffffffffffffffffffffffff167f17307eab39ab6107e8899845ad3d59bd9653f200f220920489ca2b5937696c3183604051611ca491906138d8565b60405180910390a35050565b611cc1611cbb61201b565b8361231c565b611d00576040517f08c379a0000000000000000000000000000000000000000000000000000000008152600401611cf790613b90565b60405180910390fd5b611d0c84848484612968565b50505050565b6060611d1d82611faf565b611d5c576040517f08c379a0000000000000000000000000000000000000000000000000000000008152600401611d5390613b30565b60405180910390fd5b6000611d666129c4565b90506000815111611d865760405180602001604052806000815250611db1565b80611d9084612a56565b604051602001611da1929190613808565b6040516020818303038152906040525b915050919050565b6000600560008473ffffffffffffffffffffffffffffffffffffffff1673ffffffffffffffffffffffffffffffffffffffff16815260200190815260200160002060008373ffffffffffffffffffffffffffffffffffffffff1673ffffffffffffffffffffffffffffffffffffffff16815260200190815260200160002060009054906101000a900460ff16905092915050565b611e5561201b565b73ffffffffffffffffffffffffffffffffffffffff16611e736115e5565b73ffffffffffffffffffffffffffffffffffffffff1614611ec9576040517f08c379a0000000000000000000000000000000000000000000000000000000008152600401611ec090613ab0565b60405180910390fd5b600073ffffffffffffffffffffffffffffffffffffffff168173ffffffffffffffffffffffffffffffffffffffff161415611f39576040517f08c379a0000000000000000000000000000000000000000000000000000000008152600401611f3090613950565b60405180910390fd5b611f4281612892565b50565b60007f01ffc9a7000000000000000000000000000000000000000000000000000000007bffffffffffffffffffffffffffffffffffffffffffffffffffffffff1916827bffffffffffffffffffffffffffffffffffffffffffffffffffffffff1916149050919050565b60008073ffffffffffffffffffffffffffffffffffffffff166002600084815260200190815260200160002060009054906101000a900473ffffffffffffffffffffffffffffffffffffffff1673ffffffffffffffffffffffffffffffffffffffff1614159050919050565b600033905090565b816004600083815260200190815260200160002060006101000a81548173ffffffffffffffffffffffffffffffffffffffff021916908373ffffffffffffffffffffffffffffffffffffffff160217905550808273ffffffffffffffffffffffffffffffffffffffff166120968361131b565b73ffffffffffffffffffffffffffffffffffffffff167f8c5be1e5ebec7d5bd14f71427d1e84f3dd0314c0f7b2291e5b200ac8c7c3b92560405160405180910390a45050565b6000600960008381526020019081526020016000206040518060a00160405290816000820160009054906101000a900460ff161515151581526020016000820160019054906101000a900473ffffffffffffffffffffffffffffffffffffffff1673ffffffffffffffffffffffffffffffffffffffff1673ffffffffffffffffffffffffffffffffffffffff168152602001600182015481526020016002820160009054906101000a900473ffffffffffffffffffffffffffffffffffffffff1673ffffffffffffffffffffffffffffffffffffffff1673ffffffffffffffffffffffffffffffffffffffff168152602001600382015481525050905060011515816000015115151415612318576000816000019015159081151581525050806009600084815260200190815260200160002060008201518160000160006101000a81548160ff02191690831515021790555060208201518160000160016101000a81548173ffffffffffffffffffffffffffffffffffffffff021916908373ffffffffffffffffffffffffffffffffffffffff1602179055506040820151816001015560608201518160020160006101000a81548173ffffffffffffffffffffffffffffffffffffffff021916908373ffffffffffffffffffffffffffffffffffffffff160217905550608082015181600301559050507f9d95c8d7e85df1b99652e8b5c74845d38cfac4cadd1786b23310a6556ee910e7828260800151836060015160405161230f93929190613c21565b60405180910390a15b5050565b600061232782611faf565b612366576040517f08c379a000000000000000000000000000000000000000000000000000000000815260040161235d906139f0565b60405180910390fd5b60006123718361131b565b90508073ffffffffffffffffffffffffffffffffffffffff168473ffffffffffffffffffffffffffffffffffffffff1614806123e057508373ffffffffffffffffffffffffffffffffffffffff166123c8846106d2565b73ffffffffffffffffffffffffffffffffffffffff16145b806123f157506123f08185611db9565b5b91505092915050565b8273ffffffffffffffffffffffffffffffffffffffff1661241a8261131b565b73ffffffffffffffffffffffffffffffffffffffff1614612470576040517f08c379a000000000000000000000000000000000000000000000000000000000815260040161246790613b10565b60405180910390fd5b600073ffffffffffffffffffffffffffffffffffffffff168273ffffffffffffffffffffffffffffffffffffffff1614156124e0576040517f08c379a00000000000000000000000000000000000000000000000000000000081526004016124d7906139b0565b60405180910390fd5b6124eb838383612c03565b6124f6600082612023565b6001600360008573ffffffffffffffffffffffffffffffffffffffff1673ffffffffffffffffffffffffffffffffffffffff16815260200190815260200160002060008282546125469190613e9b565b925050819055506001600360008473ffffffffffffffffffffffffffffffffffffffff1673ffffffffffffffffffffffffffffffffffffffff168152602001908152602001600020600082825461259d9190613dba565b92505081905550816002600083815260200190815260200160002060006101000a81548173ffffffffffffffffffffffffffffffffffffffff021916908373ffffffffffffffffffffffffffffffffffffffff160217905550808273ffffffffffffffffffffffffffffffffffffffff168473ffffffffffffffffffffffffffffffffffffffff167fddf252ad1be2c89b69c2b068fc378daa952ba7f163c4a11628f55a4df523b3ef60405160405180910390a4505050565b61266761266161201b565b8261231c565b6126a6576040517f08c379a000000000000000000000000000000000000000000000000000000000815260040161269d90613b90565b60405180910390fd5b50565b60006126b5600a612c11565b90506126c1600a612c1f565b90565b600073ffffffffffffffffffffffffffffffffffffffff168273ffffffffffffffffffffffffffffffffffffffff161415612734576040517f08c379a000000000000000000000000000000000000000000000000000000000815260040161272b90613a70565b60405180910390fd5b61273d81611faf565b1561277d576040517f08c379a000000000000000000000000000000000000000000000000000000000815260040161277490613970565b60405180910390fd5b61278960008383612c03565b6001600360008473ffffffffffffffffffffffffffffffffffffffff1673ffffffffffffffffffffffffffffffffffffffff16815260200190815260200160002060008282546127d99190613dba565b92505081905550816002600083815260200190815260200160002060006101000a81548173ffffffffffffffffffffffffffffffffffffffff021916908373ffffffffffffffffffffffffffffffffffffffff160217905550808273ffffffffffffffffffffffffffffffffffffffff16600073ffffffffffffffffffffffffffffffffffffffff167fddf252ad1be2c89b69c2b068fc378daa952ba7f163c4a11628f55a4df523b3ef60405160405180910390a45050565b6000600660009054906101000a900473ffffffffffffffffffffffffffffffffffffffff16905081600660006101000a81548173ffffffffffffffffffffffffffffffffffffffff021916908373ffffffffffffffffffffffffffffffffffffffff1602179055508173ffffffffffffffffffffffffffffffffffffffff168173ffffffffffffffffffffffffffffffffffffffff167f8be0079c531659141344cd1fd0a4f28419497f9722a3daafe3b4186f6b6457e060405160405180910390a35050565b6129638383836123fa565b505050565b6129738484846123fa565b61297f84848484612c35565b6129be576040517f08c379a00000000000000000000000000000000000000000000000000000000081526004016129b590613930565b60405180910390fd5b50505050565b6060600c80546129d390613f8f565b80601f01602080910402602001604051908101604052809291908181526020018280546129ff90613f8f565b8015612a4c5780601f10612a2157610100808354040283529160200191612a4c565b820191906000526020600020905b815481529060010190602001808311612a2f57829003601f168201915b5050505050905090565b60606000821415612a9e576040518060400160405280600181526020017f30000000000000000000000000000000000000000000000000000000000000008152509050612bfe565b600082905060005b60008214612ad0578080612ab990613ff2565b915050600a82612ac99190613e10565b9150612aa6565b60008167ffffffffffffffff811115612b12577f4e487b7100000000000000000000000000000000000000000000000000000000600052604160045260246000fd5b6040519080825280601f01601f191660200182016040528015612b445781602001600182028036833780820191505090505b5090505b60008514612bf757600182612b5d9190613e9b565b9150600a85612b6c919061403b565b6030612b789190613dba565b60f81b818381518110612bb4577f4e487b7100000000000000000000000000000000000000000000000000000000600052603260045260246000fd5b60200101907effffffffffffffffffffffffffffffffffffffffffffffffffffffffffffff1916908160001a905350600a85612bf09190613e10565b9450612b48565b8093505050505b919050565b612c0c816120dc565b505050565b600081600001549050919050565b6001816000016000828254019250508190555050565b6000612c568473ffffffffffffffffffffffffffffffffffffffff16612dcc565b15612dbf578373ffffffffffffffffffffffffffffffffffffffff1663150b7a02612c7f61201b565b8786866040518563ffffffff1660e01b8152600401612ca1949392919061388c565b602060405180830381600087803b158015612cbb57600080fd5b505af1925050508015612cec57506040513d601f19601f82011682018060405250810190612ce991906132a4565b60015b612d6f573d8060008114612d1c576040519150601f19603f3d011682016040523d82523d6000602084013e612d21565b606091505b50600081511415612d67576040517f08c379a0000000000000000000000000000000000000000000000000000000008152600401612d5e90613930565b60405180910390fd5b805181602001fd5b63150b7a0260e01b7bffffffffffffffffffffffffffffffffffffffffffffffffffffffff1916817bffffffffffffffffffffffffffffffffffffffffffffffffffffffff191614915050612dc4565b600190505b949350505050565b600080823b905060008111915050919050565b6040518060400160405280600015158152602001600081525090565b6040518060a00160405280600015158152602001600073ffffffffffffffffffffffffffffffffffffffff16815260200160008152602001600073ffffffffffffffffffffffffffffffffffffffff168152602001600081525090565b828054612e6490613f8f565b90600052602060002090601f016020900481019282612e865760008555612ecd565b82601f10612e9f57805160ff1916838001178555612ecd565b82800160010185558215612ecd579182015b82811115612ecc578251825591602001919060010190612eb1565b5b509050612eda9190612ede565b5090565b5b80821115612ef7576000816000905550600101612edf565b5090565b6000612f0e612f0984613d15565b613cf0565b905082815260208101848484011115612f2657600080fd5b612f31848285613f4d565b509392505050565b6000612f4c612f4784613d46565b613cf0565b905082815260208101848484011115612f6457600080fd5b612f6f848285613f4d565b509392505050565b600081359050612f8681614684565b92915050565b600081359050612f9b8161469b565b92915050565b600081359050612fb0816146b2565b92915050565b600081359050612fc5816146c9565b92915050565b600081519050612fda816146c9565b92915050565b600082601f830112612ff157600080fd5b8135613001848260208601612efb565b91505092915050565b600082601f83011261301b57600080fd5b813561302b848260208601612f39565b91505092915050565b600081359050613043816146e0565b92915050565b60006020828403121561305b57600080fd5b600061306984828501612f77565b91505092915050565b6000806040838503121561308557600080fd5b600061309385828601612f77565b92505060206130a485828601612f77565b9150509250929050565b6000806000606084860312156130c357600080fd5b60006130d186828701612f77565b93505060206130e286828701612f77565b92505060406130f386828701613034565b9150509250925092565b6000806000806080858703121561311357600080fd5b600061312187828801612f77565b945050602061313287828801612f77565b935050604061314387828801613034565b925050606085013567ffffffffffffffff81111561316057600080fd5b61316c87828801612fe0565b91505092959194509250565b6000806040838503121561318b57600080fd5b600061319985828601612f77565b92505060206131aa85828601612f8c565b9150509250929050565b6000806000606084860312156131c957600080fd5b60006131d786828701612f77565b93505060206131e886828701612f8c565b92505060406131f986828701613034565b9150509250925092565b6000806040838503121561321657600080fd5b600061322485828601612f77565b925050602061323585828601612fa1565b9150509250929050565b6000806040838503121561325257600080fd5b600061326085828601612f77565b925050602061327185828601613034565b9150509250929050565b60006020828403121561328d57600080fd5b600061329b84828501612fb6565b91505092915050565b6000602082840312156132b657600080fd5b60006132c484828501612fcb565b91505092915050565b6000602082840312156132df57600080fd5b600082013567ffffffffffffffff8111156132f957600080fd5b6133058482850161300a565b91505092915050565b60006020828403121561332057600080fd5b600061332e84828501613034565b91505092915050565b60008060006060848603121561334c57600080fd5b600061335a86828701613034565b935050602061336b86828701612f77565b925050604061337c86828701613034565b9150509250925092565b61338f81613ecf565b82525050565b61339e81613ecf565b82525050565b6133ad81613ee1565b82525050565b6133bc81613ee1565b82525050565b6133cb81613eed565b82525050565b60006133dc82613d77565b6133e68185613d8d565b93506133f6818560208601613f5c565b6133ff81614128565b840191505092915050565b600061341582613d82565b61341f8185613d9e565b935061342f818560208601613f5c565b61343881614128565b840191505092915050565b600061344e82613d82565b6134588185613daf565b9350613468818560208601613f5c565b80840191505092915050565b6000613481603283613d9e565b915061348c82614139565b604082019050919050565b60006134a4602683613d9e565b91506134af82614188565b604082019050919050565b60006134c7601c83613d9e565b91506134d2826141d7565b602082019050919050565b60006134ea601c83613d9e565b91506134f582614200565b602082019050919050565b600061350d602483613d9e565b915061351882614229565b604082019050919050565b6000613530601983613d9e565b915061353b82614278565b602082019050919050565b6000613553602c83613d9e565b915061355e826142a1565b604082019050919050565b6000613576603883613d9e565b9150613581826142f0565b604082019050919050565b6000613599602a83613d9e565b91506135a48261433f565b604082019050919050565b60006135bc602983613d9e565b91506135c78261438e565b604082019050919050565b60006135df602083613d9e565b91506135ea826143dd565b602082019050919050565b6000613602602c83613d9e565b915061360d82614406565b604082019050919050565b6000613625602083613d9e565b915061363082614455565b602082019050919050565b6000613648602083613d9e565b91506136538261447e565b602082019050919050565b600061366b601b83613d9e565b9150613676826144a7565b602082019050919050565b600061368e602983613d9e565b9150613699826144d0565b604082019050919050565b60006136b1602f83613d9e565b91506136bc8261451f565b604082019050919050565b60006136d4603383613d9e565b91506136df8261456e565b604082019050919050565b60006136f7602183613d9e565b9150613702826145bd565b604082019050919050565b600061371a603183613d9e565b91506137258261460c565b604082019050919050565b600061373d602083613d9e565b91506137488261465b565b602082019050919050565b60a08201600082015161376960008501826133a4565b50602082015161377c6020850182613386565b50604082015161378f60408501826137ea565b5060608201516137a26060850182613386565b5060808201516137b560808501826137ea565b50505050565b6040820160008201516137d160008501826133a4565b5060208201516137e460208501826137ea565b50505050565b6137f381613f43565b82525050565b61380281613f43565b82525050565b60006138148285613443565b91506138208284613443565b91508190509392505050565b60006020820190506138416000830184613395565b92915050565b600060808201905061385c6000830187613395565b6138696020830186613395565b6138766040830185613395565b61388360608301846137f9565b95945050505050565b60006080820190506138a16000830187613395565b6138ae6020830186613395565b6138bb60408301856137f9565b81810360608301526138cd81846133d1565b905095945050505050565b60006020820190506138ed60008301846133b3565b92915050565b600060208201905061390860008301846133c2565b92915050565b60006020820190508181036000830152613928818461340a565b905092915050565b6000602082019050818103600083015261394981613474565b9050919050565b6000602082019050818103600083015261396981613497565b9050919050565b60006020820190508181036000830152613989816134ba565b9050919050565b600060208201905081810360008301526139a9816134dd565b9050919050565b600060208201905081810360008301526139c981613500565b9050919050565b600060208201905081810360008301526139e981613523565b9050919050565b60006020820190508181036000830152613a0981613546565b9050919050565b60006020820190508181036000830152613a2981613569565b9050919050565b60006020820190508181036000830152613a498161358c565b9050919050565b60006020820190508181036000830152613a69816135af565b9050919050565b60006020820190508181036000830152613a89816135d2565b9050919050565b60006020820190508181036000830152613aa9816135f5565b9050919050565b60006020820190508181036000830152613ac981613618565b9050919050565b60006020820190508181036000830152613ae98161363b565b9050919050565b60006020820190508181036000830152613b098161365e565b9050919050565b60006020820190508181036000830152613b2981613681565b9050919050565b60006020820190508181036000830152613b49816136a4565b9050919050565b60006020820190508181036000830152613b69816136c7565b9050919050565b60006020820190508181036000830152613b89816136ea565b9050919050565b60006020820190508181036000830152613ba98161370d565b9050919050565b60006020820190508181036000830152613bc981613730565b9050919050565b600060a082019050613be56000830184613753565b92915050565b6000604082019050613c0060008301846137bb565b92915050565b6000602082019050613c1b60008301846137f9565b92915050565b6000606082019050613c3660008301866137f9565b613c4360208301856137f9565b613c506040830184613395565b949350505050565b6000608082019050613c6d60008301876137f9565b613c7a60208301866137f9565b613c876040830185613395565b613c946060830184613395565b95945050505050565b600060a082019050613cb260008301886137f9565b613cbf60208301876137f9565b613ccc6040830186613395565b613cd960608301856137f9565b613ce66080830184613395565b9695505050505050565b6000613cfa613d0b565b9050613d068282613fc1565b919050565b6000604051905090565b600067ffffffffffffffff821115613d3057613d2f6140f9565b5b613d3982614128565b9050602081019050919050565b600067ffffffffffffffff821115613d6157613d606140f9565b5b613d6a82614128565b9050602081019050919050565b600081519050919050565b600081519050919050565b600082825260208201905092915050565b600082825260208201905092915050565b600081905092915050565b6000613dc582613f43565b9150613dd083613f43565b9250827fffffffffffffffffffffffffffffffffffffffffffffffffffffffffffffffff03821115613e0557613e0461406c565b5b828201905092915050565b6000613e1b82613f43565b9150613e2683613f43565b925082613e3657613e3561409b565b5b828204905092915050565b6000613e4c82613f43565b9150613e5783613f43565b9250817fffffffffffffffffffffffffffffffffffffffffffffffffffffffffffffffff0483118215151615613e9057613e8f61406c565b5b828202905092915050565b6000613ea682613f43565b9150613eb183613f43565b925082821015613ec457613ec361406c565b5b828203905092915050565b6000613eda82613f23565b9050919050565b60008115159050919050565b6000819050919050565b60007fffffffff0000000000000000000000000000000000000000000000000000000082169050919050565b600073ffffffffffffffffffffffffffffffffffffffff82169050919050565b6000819050919050565b82818337600083830152505050565b60005b83811015613f7a578082015181840152602081019050613f5f565b83811115613f89576000848401525b50505050565b60006002820490506001821680613fa757607f821691505b60208210811415613fbb57613fba6140ca565b5b50919050565b613fca82614128565b810181811067ffffffffffffffff82111715613fe957613fe86140f9565b5b80604052505050565b6000613ffd82613f43565b91507fffffffffffffffffffffffffffffffffffffffffffffffffffffffffffffffff8214156140305761402f61406c565b5b600182019050919050565b600061404682613f43565b915061405183613f43565b9250826140615761406061409b565b5b828206905092915050565b7f4e487b7100000000000000000000000000000000000000000000000000000000600052601160045260246000fd5b7f4e487b7100000000000000000000000000000000000000000000000000000000600052601260045260246000fd5b7f4e487b7100000000000000000000000000000000000000000000000000000000600052602260045260246000fd5b7f4e487b7100000000000000000000000000000000000000000000000000000000600052604160045260246000fd5b6000601f19601f8301169050919050565b7f4552433732313a207472616e7366657220746f206e6f6e20455243373231526560008201527f63656976657220696d706c656d656e7465720000000000000000000000000000602082015250565b7f4f776e61626c653a206e6577206f776e657220697320746865207a65726f206160008201527f6464726573730000000000000000000000000000000000000000000000000000602082015250565b7f4552433732313a20746f6b656e20616c7265616479206d696e74656400000000600082015250565b7f4e756c6c7350657454726164652f446f206e6f7420726573656c6c2e00000000600082015250565b7f4552433732313a207472616e7366657220746f20746865207a65726f2061646460008201527f7265737300000000000000000000000000000000000000000000000000000000602082015250565b7f4552433732313a20617070726f766520746f2063616c6c657200000000000000600082015250565b7f4552433732313a206f70657261746f7220717565727920666f72206e6f6e657860008201527f697374656e7420746f6b656e0000000000000000000000000000000000000000602082015250565b7f4552433732313a20617070726f76652063616c6c6572206973206e6f74206f7760008201527f6e6572206e6f7220617070726f76656420666f7220616c6c0000000000000000602082015250565b7f4552433732313a2062616c616e636520717565727920666f7220746865207a6560008201527f726f206164647265737300000000000000000000000000000000000000000000602082015250565b7f4552433732313a206f776e657220717565727920666f72206e6f6e657869737460008201527f656e7420746f6b656e0000000000000000000000000000000000000000000000602082015250565b7f4552433732313a206d696e7420746f20746865207a65726f2061646472657373600082015250565b7f4552433732313a20617070726f76656420717565727920666f72206e6f6e657860008201527f697374656e7420746f6b656e0000000000000000000000000000000000000000602082015250565b7f4f776e61626c653a2063616c6c6572206973206e6f7420746865206f776e6572600082015250565b7f4e756c6c7350657454726164652f50657420696420697320696c6c6567616c2e600082015250565b7f4e756c6c73506574546f6b656e2f4e6f206f70657220726f6c652e0000000000600082015250565b7f4552433732313a207472616e73666572206f6620746f6b656e2074686174206960008201527f73206e6f74206f776e0000000000000000000000000000000000000000000000602082015250565b7f4552433732314d657461646174613a2055524920717565727920666f72206e6f60008201527f6e6578697374656e7420746f6b656e0000000000000000000000000000000000602082015250565b7f4e756c6c7350657454726164652f43757272656e746c79207065747320646f2060008201527f6e6f7420737570706f727420627579696e672e00000000000000000000000000602082015250565b7f4552433732313a20617070726f76616c20746f2063757272656e74206f776e6560008201527f7200000000000000000000000000000000000000000000000000000000000000602082015250565b7f4552433732313a207472616e736665722063616c6c6572206973206e6f74206f60008201527f776e6572206e6f7220617070726f766564000000000000000000000000000000602082015250565b7f4e756c6c7350657454726164652f556e737570706f7274656420746f6b656e2e600082015250565b61468d81613ecf565b811461469857600080fd5b50565b6146a481613ee1565b81146146af57600080fd5b50565b6146bb81613eed565b81146146c657600080fd5b50565b6146d281613ef7565b81146146dd57600080fd5b50565b6146e981613f43565b81146146f457600080fd5b5056fea2646970667358221220f9d67da0d53189b102d317c6c8c2e0ea002a4e528a7a26fcc7ebfc2c1780e0b964736f6c63430008040033",
  "linkReferences": {},
  "deployedLinkReferences": {}
}