{
  "_format": "hh-sol-artifact-1",
  "contractName": "NullsRankManager",
  "sourceName": "contracts/v2/rank/NullsRankManager.sol",
  "abi": [
    {
      "anonymous": false,
      "inputs": [
        {
          "indexed": false,
          "internalType": "uint256",
          "name": "itemId",
          "type": "uint256"
        },
        {
          "indexed": false,
          "internalType": "uint256",
          "name": "petId",
          "type": "uint256"
        },
        {
          "indexed": false,
          "internalType": "address",
          "name": "token",
          "type": "address"
        },
        {
          "indexed": false,
          "internalType": "uint256",
          "name": "initialCapital",
          "type": "uint256"
        },
        {
          "indexed": false,
          "internalType": "address",
          "name": "creater",
          "type": "address"
        },
        {
          "indexed": false,
          "internalType": "uint8",
          "name": "multiple",
          "type": "uint8"
        },
        {
          "indexed": false,
          "internalType": "address",
          "name": "publicKey",
          "type": "address"
        }
      ],
      "name": "NewRank",
      "type": "event"
    },
    {
      "anonymous": false,
      "inputs": [
        {
          "indexed": true,
          "internalType": "address",
          "name": "previousOwner",
          "type": "address"
        },
        {
          "indexed": true,
          "internalType": "address",
          "name": "newOwner",
          "type": "address"
        }
      ],
      "name": "OwnershipTransferred",
      "type": "event"
    },
    {
      "anonymous": false,
      "inputs": [
        {
          "indexed": false,
          "internalType": "uint256",
          "name": "itemId",
          "type": "uint256"
        },
        {
          "indexed": false,
          "internalType": "bytes32",
          "name": "hv",
          "type": "bytes32"
        },
        {
          "indexed": false,
          "internalType": "bytes32",
          "name": "requestKey",
          "type": "bytes32"
        },
        {
          "indexed": false,
          "internalType": "uint256",
          "name": "deadline",
          "type": "uint256"
        },
        {
          "indexed": false,
          "internalType": "address",
          "name": "user",
          "type": "address"
        }
      ],
      "name": "RankNewNonce",
      "type": "event"
    },
    {
      "anonymous": false,
      "inputs": [
        {
          "indexed": false,
          "internalType": "uint256",
          "name": "itemId",
          "type": "uint256"
        },
        {
          "indexed": false,
          "internalType": "uint256",
          "name": "challengerPetId",
          "type": "uint256"
        },
        {
          "indexed": false,
          "internalType": "uint256",
          "name": "restEndTime",
          "type": "uint256"
        },
        {
          "indexed": false,
          "internalType": "address",
          "name": "challenger",
          "type": "address"
        },
        {
          "indexed": false,
          "internalType": "uint256",
          "name": "bonusPool",
          "type": "uint256"
        },
        {
          "indexed": false,
          "internalType": "bytes32",
          "name": "rv",
          "type": "bytes32"
        },
        {
          "indexed": false,
          "internalType": "bool",
          "name": "isWin",
          "type": "bool"
        },
        {
          "indexed": false,
          "internalType": "uint256",
          "name": "value",
          "type": "uint256"
        },
        {
          "indexed": false,
          "internalType": "bytes32",
          "name": "requestKey",
          "type": "bytes32"
        }
      ],
      "name": "RankUpdate",
      "type": "event"
    },
    {
      "anonymous": false,
      "inputs": [
        {
          "indexed": false,
          "internalType": "address",
          "name": "user",
          "type": "address"
        },
        {
          "indexed": false,
          "internalType": "uint256",
          "name": "itemId",
          "type": "uint256"
        },
        {
          "indexed": false,
          "internalType": "address",
          "name": "token",
          "type": "address"
        },
        {
          "indexed": false,
          "internalType": "uint256",
          "name": "amount",
          "type": "uint256"
        }
      ],
      "name": "RefundPkFee",
      "type": "event"
    },
    {
      "anonymous": false,
      "inputs": [
        {
          "indexed": false,
          "internalType": "uint256",
          "name": "item",
          "type": "uint256"
        },
        {
          "indexed": false,
          "internalType": "address",
          "name": "player",
          "type": "address"
        },
        {
          "indexed": false,
          "internalType": "bytes32",
          "name": "hv",
          "type": "bytes32"
        },
        {
          "indexed": false,
          "internalType": "bytes32",
          "name": "key",
          "type": "bytes32"
        }
      ],
      "name": "ZKRandomMessage",
      "type": "event"
    },
    {
      "inputs": [
        {
          "internalType": "uint256",
          "name": "",
          "type": "uint256"
        }
      ],
      "name": "LastChallengeTime",
      "outputs": [
        {
          "internalType": "uint256",
          "name": "",
          "type": "uint256"
        }
      ],
      "stateMutability": "view",
      "type": "function"
    },
    {
      "inputs": [
        {
          "internalType": "address",
          "name": "token",
          "type": "address"
        },
        {
          "internalType": "uint256",
          "name": "minInitialCapital",
          "type": "uint256"
        }
      ],
      "name": "addRankToken",
      "outputs": [],
      "stateMutability": "nonpayable",
      "type": "function"
    },
    {
      "inputs": [
        {
          "internalType": "uint256",
          "name": "petId",
          "type": "uint256"
        },
        {
          "internalType": "address",
          "name": "token",
          "type": "address"
        },
        {
          "internalType": "uint8",
          "name": "multiple",
          "type": "uint8"
        }
      ],
      "name": "createRank",
      "outputs": [
        {
          "internalType": "uint256",
          "name": "itemId",
          "type": "uint256"
        }
      ],
      "stateMutability": "nonpayable",
      "type": "function"
    },
    {
      "inputs": [
        {
          "internalType": "address",
          "name": "token",
          "type": "address"
        }
      ],
      "name": "getPrice",
      "outputs": [
        {
          "internalType": "uint256",
          "name": "price",
          "type": "uint256"
        }
      ],
      "stateMutability": "view",
      "type": "function"
    },
    {
      "inputs": [
        {
          "internalType": "uint256",
          "name": "rankId",
          "type": "uint256"
        }
      ],
      "name": "getRankInfo",
      "outputs": [
        {
          "components": [
            {
              "internalType": "uint256",
              "name": "petId",
              "type": "uint256"
            },
            {
              "internalType": "address",
              "name": "token",
              "type": "address"
            },
            {
              "internalType": "uint256",
              "name": "ticketAmt",
              "type": "uint256"
            },
            {
              "internalType": "uint256",
              "name": "initialCapital",
              "type": "uint256"
            },
            {
              "internalType": "uint8",
              "name": "multiple",
              "type": "uint8"
            },
            {
              "internalType": "address",
              "name": "creater",
              "type": "address"
            },
            {
              "internalType": "uint256",
              "name": "bonusPool",
              "type": "uint256"
            },
            {
              "internalType": "uint256",
              "name": "ownerBonus",
              "type": "uint256"
            },
            {
              "internalType": "uint256",
              "name": "gameOperatorBonus",
              "type": "uint256"
            },
            {
              "internalType": "uint256",
              "name": "total",
              "type": "uint256"
            }
          ],
          "internalType": "struct INullsRankManager.Rank",
          "name": "rank",
          "type": "tuple"
        }
      ],
      "stateMutability": "view",
      "type": "function"
    },
    {
      "inputs": [],
      "name": "getRestTime",
      "outputs": [
        {
          "internalType": "uint256",
          "name": "generalPetRestTime",
          "type": "uint256"
        }
      ],
      "stateMutability": "view",
      "type": "function"
    },
    {
      "inputs": [],
      "name": "getSceneId",
      "outputs": [
        {
          "internalType": "uint256",
          "name": "sceneId",
          "type": "uint256"
        }
      ],
      "stateMutability": "view",
      "type": "function"
    },
    {
      "inputs": [
        {
          "internalType": "address",
          "name": "player",
          "type": "address"
        }
      ],
      "name": "nonces",
      "outputs": [
        {
          "internalType": "uint256",
          "name": "",
          "type": "uint256"
        }
      ],
      "stateMutability": "view",
      "type": "function"
    },
    {
      "inputs": [
        {
          "internalType": "uint256",
          "name": "item",
          "type": "uint256"
        },
        {
          "internalType": "bytes32",
          "name": "key",
          "type": "bytes32"
        },
        {
          "internalType": "bytes32",
          "name": "rv",
          "type": "bytes32"
        }
      ],
      "name": "notify",
      "outputs": [
        {
          "internalType": "bool",
          "name": "",
          "type": "bool"
        }
      ],
      "stateMutability": "nonpayable",
      "type": "function"
    },
    {
      "inputs": [],
      "name": "owner",
      "outputs": [
        {
          "internalType": "address",
          "name": "",
          "type": "address"
        }
      ],
      "stateMutability": "view",
      "type": "function"
    },
    {
      "inputs": [
        {
          "internalType": "uint256",
          "name": "itemId",
          "type": "uint256"
        },
        {
          "internalType": "uint256",
          "name": "challengerPetId",
          "type": "uint256"
        },
        {
          "internalType": "uint256",
          "name": "deadline",
          "type": "uint256"
        }
      ],
      "name": "pk",
      "outputs": [],
      "stateMutability": "nonpayable",
      "type": "function"
    },
    {
      "inputs": [],
      "name": "renounceOwnership",
      "outputs": [],
      "stateMutability": "nonpayable",
      "type": "function"
    },
    {
      "inputs": [
        {
          "internalType": "address",
          "name": "afterAddr",
          "type": "address"
        }
      ],
      "name": "setAfterProccess",
      "outputs": [],
      "stateMutability": "nonpayable",
      "type": "function"
    },
    {
      "inputs": [
        {
          "internalType": "address",
          "name": "petToken",
          "type": "address"
        }
      ],
      "name": "setPetToken",
      "outputs": [],
      "stateMutability": "nonpayable",
      "type": "function"
    },
    {
      "inputs": [
        {
          "internalType": "address",
          "name": "proxy",
          "type": "address"
        }
      ],
      "name": "setProxy",
      "outputs": [],
      "stateMutability": "nonpayable",
      "type": "function"
    },
    {
      "inputs": [
        {
          "internalType": "uint256",
          "name": "generalPetRestTime",
          "type": "uint256"
        }
      ],
      "name": "setRestTime",
      "outputs": [],
      "stateMutability": "nonpayable",
      "type": "function"
    },
    {
      "inputs": [
        {
          "internalType": "address",
          "name": "proxy",
          "type": "address"
        }
      ],
      "name": "setTransferProxy",
      "outputs": [],
      "stateMutability": "nonpayable",
      "type": "function"
    },
    {
      "inputs": [
        {
          "internalType": "address",
          "name": "newOwner",
          "type": "address"
        }
      ],
      "name": "transferOwnership",
      "outputs": [],
      "stateMutability": "nonpayable",
      "type": "function"
    }
  ],
  "bytecode": "0x60806040526000600260006101000a81548173ffffffffffffffffffffffffffffffffffffffff021916908373ffffffffffffffffffffffffffffffffffffffff1602179055506000600360006101000a81548173ffffffffffffffffffffffffffffffffffffffff021916908373ffffffffffffffffffffffffffffffffffffffff1602179055506001600460146101000a81548160ff02191690831515021790555061012c600655348015620000b657600080fd5b50620000d7620000cb620000dd60201b60201c565b620000e560201b60201c565b620001a9565b600033905090565b60008060009054906101000a900473ffffffffffffffffffffffffffffffffffffffff169050816000806101000a81548173ffffffffffffffffffffffffffffffffffffffff021916908373ffffffffffffffffffffffffffffffffffffffff1602179055508173ffffffffffffffffffffffffffffffffffffffff168173ffffffffffffffffffffffffffffffffffffffff167f8be0079c531659141344cd1fd0a4f28419497f9722a3daafe3b4186f6b6457e060405160405180910390a35050565b613e0980620001b96000396000f3fe608060405234801561001057600080fd5b50600436106101165760003560e01c80637ecebe00116100a257806397107d6d1161007157806397107d6d146102f1578063c81db8951461030d578063f2fde38b14610329578063f5a48b6e14610345578063fc8359fa1461036357610116565b80637ecebe001461025757806380a2d3e8146102875780638ae42905146102b75780638da5cb5b146102d357610116565b806347c81e83116100e957806347c81e83146101c75780635cb40c27146101e35780636879ce0d146101ff578063715018a61461021d57806377e100271461022757610116565b806308dd26f31461011b578063180540d81461014b57806318ab08c11461016757806341976e0914610197575b600080fd5b61013560048036038101906101309190612cf7565b61037f565b6040516101429190613507565b60405180910390f35b61016560048036038101906101609190612c17565b610397565b005b610181600480360381019061017c9190612cf7565b610457565b60405161018e91906134eb565b60405180910390f35b6101b160048036038101906101ac9190612c17565b610594565b6040516101be9190613507565b60405180910390f35b6101e160048036038101906101dc9190612de7565b610659565b005b6101fd60048036038101906101f89190612c17565b610ceb565b005b610207610dab565b6040516102149190613507565b60405180910390f35b610225610db5565b005b610241600480360381019061023c9190612d98565b610e3d565b60405161024e91906132aa565b60405180910390f35b610271600480360381019061026c9190612c17565b611155565b60405161027e9190613507565b60405180910390f35b6102a1600480360381019061029c9190612d49565b6111a5565b6040516102ae9190613507565b60405180910390f35b6102d160048036038101906102cc9190612c17565b6118e6565b005b6102db6119a6565b6040516102e891906131a5565b60405180910390f35b61030b60048036038101906103069190612c17565b6119cf565b005b61032760048036038101906103229190612cf7565b611b42565b005b610343600480360381019061033e9190612c17565b611bc8565b005b61034d611cc0565b60405161035a9190613507565b60405180910390f35b61037d60048036038101906103789190612c69565b611cca565b005b60096020528060005260406000206000915090505481565b61039f611dce565b73ffffffffffffffffffffffffffffffffffffffff166103bd6119a6565b73ffffffffffffffffffffffffffffffffffffffff1614610413576040517f08c379a000000000000000000000000000000000000000000000000000000000815260040161040a9061340b565b60405180910390fd5b80600160006101000a81548173ffffffffffffffffffffffffffffffffffffffff021916908373ffffffffffffffffffffffffffffffffffffffff16021790555050565b61045f612aed565b600a600083815260200190815260200160002060405180610140016040529081600082015481526020016001820160009054906101000a900473ffffffffffffffffffffffffffffffffffffffff1673ffffffffffffffffffffffffffffffffffffffff1673ffffffffffffffffffffffffffffffffffffffff16815260200160028201548152602001600382015481526020016004820160009054906101000a900460ff1660ff1660ff1681526020016004820160019054906101000a900473ffffffffffffffffffffffffffffffffffffffff1673ffffffffffffffffffffffffffffffffffffffff1673ffffffffffffffffffffffffffffffffffffffff1681526020016005820154815260200160068201548152602001600782015481526020016008820154815250509050919050565b600080600860008473ffffffffffffffffffffffffffffffffffffffff1673ffffffffffffffffffffffffffffffffffffffff168152602001908152602001600020604051806040016040529081600082015481526020016001820160009054906101000a900460ff1615151515815250509050806020015161064c576040517f08c379a000000000000000000000000000000000000000000000000000000000815260040161064390613305565b60405180910390fd5b8060000151915050919050565b8042111561069c576040517f08c379a00000000000000000000000000000000000000000000000000000000081526004016106939061346b565b60405180910390fd5b3373ffffffffffffffffffffffffffffffffffffffff16600360009054906101000a900473ffffffffffffffffffffffffffffffffffffffff1673ffffffffffffffffffffffffffffffffffffffff16636352211e846040518263ffffffff1660e01b815260040161070e9190613507565b60206040518083038186803b15801561072657600080fd5b505afa15801561073a573d6000803e3d6000fd5b505050506040513d601f19601f8201168201806040525081019061075e9190612c40565b73ffffffffffffffffffffffffffffffffffffffff16146107b4576040517f08c379a00000000000000000000000000000000000000000000000000000000081526004016107ab906133cb565b60405180910390fd5b60096000838152602001908152602001600020544211610809576040517f08c379a00000000000000000000000000000000000000000000000000000000081526004016108009061344b565b60405180910390fd5b6000600a600085815260200190815260200160002060405180610140016040529081600082015481526020016001820160009054906101000a900473ffffffffffffffffffffffffffffffffffffffff1673ffffffffffffffffffffffffffffffffffffffff1673ffffffffffffffffffffffffffffffffffffffff16815260200160028201548152602001600382015481526020016004820160009054906101000a900460ff1660ff1660ff1681526020016004820160019054906101000a900473ffffffffffffffffffffffffffffffffffffffff1673ffffffffffffffffffffffffffffffffffffffff1673ffffffffffffffffffffffffffffffffffffffff1681526020016005820154815260200160068201548152602001600782015481526020016008820154815250509050600081604001519050600460009054906101000a900473ffffffffffffffffffffffffffffffffffffffff1673ffffffffffffffffffffffffffffffffffffffff16630a1b0b9183602001513330856040518563ffffffff1660e01b81526004016109a994939291906131c0565b600060405180830381600087803b1580156109c357600080fd5b505af11580156109d7573d6000803e3d6000fd5b505050506040518060600160405280868152602001836020015173ffffffffffffffffffffffffffffffffffffffff16815260200182815250600e60003373ffffffffffffffffffffffffffffffffffffffff1673ffffffffffffffffffffffffffffffffffffffff1681526020019081526020016000206000820151816000015560208201518160010160006101000a81548173ffffffffffffffffffffffffffffffffffffffff021916908373ffffffffffffffffffffffffffffffffffffffff1602179055506040820151816002015590505060065442610abb919061376f565b60096000868152602001908152602001600020819055506000848685610ae033611dd6565b46604051602001610af5959493929190613325565b6040516020818303038152906040528051906020012090506000600260009054906101000a900473ffffffffffffffffffffffffffffffffffffffff1673ffffffffffffffffffffffffffffffffffffffff16635d23b9c488846040518363ffffffff1660e01b8152600401610b6c929190613559565b602060405180830381600087803b158015610b8657600080fd5b505af1158015610b9a573d6000803e3d6000fd5b505050506040513d601f19601f82011682018060405250810190610bbe9190612cce565b905081600d60008381526020019081526020016000208190555060405180608001604052808781526020018881526020013373ffffffffffffffffffffffffffffffffffffffff16815260200160011515815250600c6000848152602001908152602001600020600082015181600001556020820151816001015560408201518160020160006101000a81548173ffffffffffffffffffffffffffffffffffffffff021916908373ffffffffffffffffffffffffffffffffffffffff16021790555060608201518160020160146101000a81548160ff0219169083151502179055509050507f0265f3db35ea62130ac6492e0b7011f211dc359dc9e68b9967b57db099a241138783838833604051610cda959493929190613582565b60405180910390a150505050505050565b610cf3611dce565b73ffffffffffffffffffffffffffffffffffffffff16610d116119a6565b73ffffffffffffffffffffffffffffffffffffffff1614610d67576040517f08c379a0000000000000000000000000000000000000000000000000000000008152600401610d5e9061340b565b60405180910390fd5b80600360006101000a81548173ffffffffffffffffffffffffffffffffffffffff021916908373ffffffffffffffffffffffffffffffffffffffff16021790555050565b6000600554905090565b610dbd611dce565b73ffffffffffffffffffffffffffffffffffffffff16610ddb6119a6565b73ffffffffffffffffffffffffffffffffffffffff1614610e31576040517f08c379a0000000000000000000000000000000000000000000000000000000008152600401610e289061340b565b60405180910390fd5b610e3b6000611e34565b565b6000600260009054906101000a900473ffffffffffffffffffffffffffffffffffffffff1673ffffffffffffffffffffffffffffffffffffffff163373ffffffffffffffffffffffffffffffffffffffff1614610ecf576040517f08c379a0000000000000000000000000000000000000000000000000000000008152600401610ec6906133eb565b60405180910390fd5b6000600d60008581526020019081526020016000205490506000600c600083815260200190815260200160002060405180608001604052908160008201548152602001600182015481526020016002820160009054906101000a900473ffffffffffffffffffffffffffffffffffffffff1673ffffffffffffffffffffffffffffffffffffffff1673ffffffffffffffffffffffffffffffffffffffff1681526020016002820160149054906101000a900460ff161515151581525050905080602001518614610fd4576040517f08c379a0000000000000000000000000000000000000000000000000000000008152600401610fcb906133ab565b60405180910390fd5b600073ffffffffffffffffffffffffffffffffffffffff16816040015173ffffffffffffffffffffffffffffffffffffffff161415611048576040517f08c379a000000000000000000000000000000000000000000000000000000000815260040161103f9061342b565b60405180910390fd5b806060015161108c576040517f08c379a0000000000000000000000000000000000000000000000000000000008152600401611083906134cb565b60405180910390fd5b6110a58160400151826020015186846000015189611ef8565b600081606001901515908115158152505080600c6000848152602001908152602001600020600082015181600001556020820151816001015560408201518160020160006101000a81548173ffffffffffffffffffffffffffffffffffffffff021916908373ffffffffffffffffffffffffffffffffffffffff16021790555060608201518160020160146101000a81548160ff0219169083151502179055509050506001925050509392505050565b600061119e600760008473ffffffffffffffffffffffffffffffffffffffff1673ffffffffffffffffffffffffffffffffffffffff168152602001908152602001600020612a6f565b9050919050565b600080600b600086815260200190815260200160002060009054906101000a900460ff1690506000151581151514611212576040517f08c379a0000000000000000000000000000000000000000000000000000000008152600401611209906132e5565b60405180910390fd5b60011515600860008673ffffffffffffffffffffffffffffffffffffffff1673ffffffffffffffffffffffffffffffffffffffff16815260200190815260200160002060010160009054906101000a900460ff161515146112a8576040517f08c379a000000000000000000000000000000000000000000000000000000000815260040161129f9061338b565b60405180910390fd5b60058360ff1614806112bd5750600a8360ff16145b6112fc576040517f08c379a00000000000000000000000000000000000000000000000000000000081526004016112f3906134ab565b60405180910390fd5b3373ffffffffffffffffffffffffffffffffffffffff16600360009054906101000a900473ffffffffffffffffffffffffffffffffffffffff1673ffffffffffffffffffffffffffffffffffffffff16636352211e876040518263ffffffff1660e01b815260040161136e9190613507565b60206040518083038186803b15801561138657600080fd5b505afa15801561139a573d6000803e3d6000fd5b505050506040513d601f19601f820116820180604052508101906113be9190612c40565b73ffffffffffffffffffffffffffffffffffffffff1614611414576040517f08c379a000000000000000000000000000000000000000000000000000000000815260040161140b906133cb565b60405180910390fd5b60ff600360009054906101000a900473ffffffffffffffffffffffffffffffffffffffff1673ffffffffffffffffffffffffffffffffffffffff16637ed41865876040518263ffffffff1660e01b81526004016114719190613507565b60206040518083038186803b15801561148957600080fd5b505afa15801561149d573d6000803e3d6000fd5b505050506040513d601f19601f820116820180604052508101906114c19190612cce565b60f81c60ff1614611507576040517f08c379a00000000000000000000000000000000000000000000000000000000081526004016114fe9061348b565b60405180910390fd5b60008360ff16600860008773ffffffffffffffffffffffffffffffffffffffff1673ffffffffffffffffffffffffffffffffffffffff1681526020019081526020016000206000015461155a91906137f6565b9050600460009054906101000a900473ffffffffffffffffffffffffffffffffffffffff1673ffffffffffffffffffffffffffffffffffffffff16630a1b0b91863330856040518563ffffffff1660e01b81526004016115bd94939291906131c0565b600060405180830381600087803b1580156115d757600080fd5b505af11580156115eb573d6000803e3d6000fd5b50505050600260009054906101000a900473ffffffffffffffffffffffffffffffffffffffff1673ffffffffffffffffffffffffffffffffffffffff166332d12a66600554600060016040518463ffffffff1660e01b815260040161165293929190613522565b602060405180830381600087803b15801561166c57600080fd5b505af1158015611680573d6000803e3d6000fd5b505050506040513d601f19601f820116820180604052508101906116a49190612d20565b92506040518061014001604052808781526020018673ffffffffffffffffffffffffffffffffffffffff168152602001600860008873ffffffffffffffffffffffffffffffffffffffff1673ffffffffffffffffffffffffffffffffffffffff1681526020019081526020016000206000015481526020018281526020018560ff1681526020013373ffffffffffffffffffffffffffffffffffffffff16815260200182815260200160008152602001600081526020016000815250600a60008581526020019081526020016000206000820151816000015560208201518160010160006101000a81548173ffffffffffffffffffffffffffffffffffffffff021916908373ffffffffffffffffffffffffffffffffffffffff160217905550604082015181600201556060820151816003015560808201518160040160006101000a81548160ff021916908360ff16021790555060a08201518160040160016101000a81548173ffffffffffffffffffffffffffffffffffffffff021916908373ffffffffffffffffffffffffffffffffffffffff16021790555060c0820151816005015560e08201518160060155610100820151816007015561012082015181600801559050506001600b600088815260200190815260200160002060006101000a81548160ff0219169083151502179055507f29d68e345952894b88e40cc17e06bb37ccd58224aedae9347dfd10ed2c1d8afd83878784338960006040516118d597969594939291906135d5565b60405180910390a150509392505050565b6118ee611dce565b73ffffffffffffffffffffffffffffffffffffffff1661190c6119a6565b73ffffffffffffffffffffffffffffffffffffffff1614611962576040517f08c379a00000000000000000000000000000000000000000000000000000000081526004016119599061340b565b60405180910390fd5b80600460006101000a81548173ffffffffffffffffffffffffffffffffffffffff021916908373ffffffffffffffffffffffffffffffffffffffff16021790555050565b60008060009054906101000a900473ffffffffffffffffffffffffffffffffffffffff16905090565b6119d7611dce565b73ffffffffffffffffffffffffffffffffffffffff166119f56119a6565b73ffffffffffffffffffffffffffffffffffffffff1614611a4b576040517f08c379a0000000000000000000000000000000000000000000000000000000008152600401611a429061340b565b60405180910390fd5b80600260006101000a81548173ffffffffffffffffffffffffffffffffffffffff021916908373ffffffffffffffffffffffffffffffffffffffff160217905550600260009054906101000a900473ffffffffffffffffffffffffffffffffffffffff1673ffffffffffffffffffffffffffffffffffffffff166363cb85e1306040518263ffffffff1660e01b8152600401611ae791906131a5565b602060405180830381600087803b158015611b0157600080fd5b505af1158015611b15573d6000803e3d6000fd5b505050506040513d601f19601f82011682018060405250810190611b399190612d20565b60058190555050565b611b4a611dce565b73ffffffffffffffffffffffffffffffffffffffff16611b686119a6565b73ffffffffffffffffffffffffffffffffffffffff1614611bbe576040517f08c379a0000000000000000000000000000000000000000000000000000000008152600401611bb59061340b565b60405180910390fd5b8060068190555050565b611bd0611dce565b73ffffffffffffffffffffffffffffffffffffffff16611bee6119a6565b73ffffffffffffffffffffffffffffffffffffffff1614611c44576040517f08c379a0000000000000000000000000000000000000000000000000000000008152600401611c3b9061340b565b60405180910390fd5b600073ffffffffffffffffffffffffffffffffffffffff168173ffffffffffffffffffffffffffffffffffffffff161415611cb4576040517f08c379a0000000000000000000000000000000000000000000000000000000008152600401611cab906132c5565b60405180910390fd5b611cbd81611e34565b50565b6000600654905090565b611cd2611dce565b73ffffffffffffffffffffffffffffffffffffffff16611cf06119a6565b73ffffffffffffffffffffffffffffffffffffffff1614611d46576040517f08c379a0000000000000000000000000000000000000000000000000000000008152600401611d3d9061340b565b60405180910390fd5b604051806040016040528082815260200160011515815250600860008473ffffffffffffffffffffffffffffffffffffffff1673ffffffffffffffffffffffffffffffffffffffff1681526020019081526020016000206000820151816000015560208201518160010160006101000a81548160ff0219169083151502179055509050505050565b600033905090565b600080600760008473ffffffffffffffffffffffffffffffffffffffff1673ffffffffffffffffffffffffffffffffffffffff1681526020019081526020016000209050611e2381612a6f565b9150611e2e81612a7d565b50919050565b60008060009054906101000a900473ffffffffffffffffffffffffffffffffffffffff169050816000806101000a81548173ffffffffffffffffffffffffffffffffffffffff021916908373ffffffffffffffffffffffffffffffffffffffff1602179055508173ffffffffffffffffffffffffffffffffffffffff168173ffffffffffffffffffffffffffffffffffffffff167f8be0079c531659141344cd1fd0a4f28419497f9722a3daafe3b4186f6b6457e060405160405180910390a35050565b6000600a600086815260200190815260200160002060405180610140016040529081600082015481526020016001820160009054906101000a900473ffffffffffffffffffffffffffffffffffffffff1673ffffffffffffffffffffffffffffffffffffffff1673ffffffffffffffffffffffffffffffffffffffff16815260200160028201548152602001600382015481526020016004820160009054906101000a900460ff1660ff1660ff1681526020016004820160019054906101000a900473ffffffffffffffffffffffffffffffffffffffff1673ffffffffffffffffffffffffffffffffffffffff1673ffffffffffffffffffffffffffffffffffffffff168152602001600582015481526020016006820154815260200160078201548152602001600882015481525050905060008160400151905060008260c0015114156122af576000600e60008973ffffffffffffffffffffffffffffffffffffffff1673ffffffffffffffffffffffffffffffffffffffff168152602001908152602001600020604051806060016040529081600082015481526020016001820160009054906101000a900473ffffffffffffffffffffffffffffffffffffffff1673ffffffffffffffffffffffffffffffffffffffff1673ffffffffffffffffffffffffffffffffffffffff168152602001600282015481525050905086816000015114801561213e5750826020015173ffffffffffffffffffffffffffffffffffffffff16816020015173ffffffffffffffffffffffffffffffffffffffff16145b801561214d5750818160400151145b156122a757826020015173ffffffffffffffffffffffffffffffffffffffff1663a9059cbb8983604001516040518363ffffffff1660e01b815260040161219592919061323c565b602060405180830381600087803b1580156121af57600080fd5b505af11580156121c3573d6000803e3d6000fd5b505050506040513d601f19601f820116820180604052508101906121e79190612ca5565b50600e60008973ffffffffffffffffffffffffffffffffffffffff1673ffffffffffffffffffffffffffffffffffffffff1681526020019081526020016000206000808201600090556001820160006101000a81549073ffffffffffffffffffffffffffffffffffffffff0219169055600282016000905550507f11338f985154bfcf345add656ebc5ee6bf5e693444df0bac1f9d180090f1fc5d88888560200151846040015160405161229e9493929190613265565b60405180910390a15b505050612a68565b60008060006122c2856101200151612a93565b925092509250600a8360ff16856122d991906137f6565b6122e391906137c5565b8560c0018181516122f4919061376f565b91508181525050600a8260ff168561230c91906137f6565b61231691906137c5565b8560e001818151612327919061376f565b91508181525050600a8160ff168561233f91906137f6565b61234991906137c5565b856101000181815161235b919061376f565b91508181525050600f808960f81c1660ff1614156127d3578460c00151600a8561238591906137f6565b11156126c057846020015173ffffffffffffffffffffffffffffffffffffffff1663a9059cbb8b8760c001516040518363ffffffff1660e01b81526004016123ce92919061323c565b602060405180830381600087803b1580156123e857600080fd5b505af11580156123fc573d6000803e3d6000fd5b505050506040513d601f19601f820116820180604052508101906124209190612ca5565b506000600360009054906101000a900473ffffffffffffffffffffffffffffffffffffffff1673ffffffffffffffffffffffffffffffffffffffff16636352211e87600001516040518263ffffffff1660e01b81526004016124829190613507565b60206040518083038186803b15801561249a57600080fd5b505afa1580156124ae573d6000803e3d6000fd5b505050506040513d601f19601f820116820180604052508101906124d29190612c40565b9050856020015173ffffffffffffffffffffffffffffffffffffffff1663a9059cbb828860e001516040518363ffffffff1660e01b815260040161251792919061323c565b602060405180830381600087803b15801561253157600080fd5b505af1158015612545573d6000803e3d6000fd5b505050506040513d601f19601f820116820180604052508101906125699190612ca5565b5060008660e0018181525050856020015173ffffffffffffffffffffffffffffffffffffffff1663a9059cbb61259d6119a6565b8861010001516040518363ffffffff1660e01b81526004016125c092919061323c565b602060405180830381600087803b1580156125da57600080fd5b505af11580156125ee573d6000803e3d6000fd5b505050506040513d601f19601f820116820180604052508101906126129190612ca5565b506000866101000181815250506000600b60008860000151815260200190815260200160002060006101000a81548160ff0219169083151502179055507f6c464bf465d5bb3f2318fab4e8c3bca32955e7541a424351480abc73b643efba8a89600960008c8152602001908152602001600020548e60008e60018d60c001518f6040516126a799989796959493929190613644565b60405180910390a160008660c0018181525050506127ce565b600060028660c001516126d391906137c5565b9050856020015173ffffffffffffffffffffffffffffffffffffffff1663a9059cbb8c836040518363ffffffff1660e01b815260040161271492919061323c565b602060405180830381600087803b15801561272e57600080fd5b505af1158015612742573d6000803e3d6000fd5b505050506040513d601f19601f820116820180604052508101906127669190612ca5565b507f6c464bf465d5bb3f2318fab4e8c3bca32955e7541a424351480abc73b643efba8a89600960008c8152602001908152602001600020548e858e6001888f6040516127ba999897969594939291906136d1565b60405180910390a1808660c0018181525050505b61284d565b7f6c464bf465d5bb3f2318fab4e8c3bca32955e7541a424351480abc73b643efba8988600960008b8152602001908152602001600020548d8960c001518d6000600a8b60ff168d61282491906137f6565b61282e91906137c5565b8e604051612844999897969594939291906136d1565b60405180910390a15b60018561012001818151612861919061376f565b9150818152505084600a60008b81526020019081526020016000206000820151816000015560208201518160010160006101000a81548173ffffffffffffffffffffffffffffffffffffffff021916908373ffffffffffffffffffffffffffffffffffffffff160217905550604082015181600201556060820151816003015560808201518160040160006101000a81548160ff021916908360ff16021790555060a08201518160040160016101000a81548173ffffffffffffffffffffffffffffffffffffffff021916908373ffffffffffffffffffffffffffffffffffffffff16021790555060c0820151816005015560e0820151816006015561010082015181600701556101208201518160080155905050600073ffffffffffffffffffffffffffffffffffffffff16600160009054906101000a900473ffffffffffffffffffffffffffffffffffffffff1673ffffffffffffffffffffffffffffffffffffffff1614612a6257600160009054906101000a900473ffffffffffffffffffffffffffffffffffffffff1673ffffffffffffffffffffffffffffffffffffffff16639c571eb98b8760200151876040518463ffffffff1660e01b8152600401612a2f93929190613205565b600060405180830381600087803b158015612a4957600080fd5b505af1158015612a5d573d6000803e3d6000fd5b505050505b50505050505b5050505050565b600081600001549050919050565b6001816000016000828254019250508190555050565b6000806000600a8411612ab157600692506003915060019050612ae6565b600a84118015612ac2575060148411155b15612ad857600792506002915060019050612ae5565b6008925060019150600190505b5b9193909250565b60405180610140016040528060008152602001600073ffffffffffffffffffffffffffffffffffffffff1681526020016000815260200160008152602001600060ff168152602001600073ffffffffffffffffffffffffffffffffffffffff168152602001600081526020016000815260200160008152602001600081525090565b600081359050612b7e81613d60565b92915050565b600081519050612b9381613d60565b92915050565b600081519050612ba881613d77565b92915050565b600081359050612bbd81613d8e565b92915050565b600081519050612bd281613d8e565b92915050565b600081359050612be781613da5565b92915050565b600081519050612bfc81613da5565b92915050565b600081359050612c1181613dbc565b92915050565b600060208284031215612c2957600080fd5b6000612c3784828501612b6f565b91505092915050565b600060208284031215612c5257600080fd5b6000612c6084828501612b84565b91505092915050565b60008060408385031215612c7c57600080fd5b6000612c8a85828601612b6f565b9250506020612c9b85828601612bd8565b9150509250929050565b600060208284031215612cb757600080fd5b6000612cc584828501612b99565b91505092915050565b600060208284031215612ce057600080fd5b6000612cee84828501612bc3565b91505092915050565b600060208284031215612d0957600080fd5b6000612d1784828501612bd8565b91505092915050565b600060208284031215612d3257600080fd5b6000612d4084828501612bed565b91505092915050565b600080600060608486031215612d5e57600080fd5b6000612d6c86828701612bd8565b9350506020612d7d86828701612b6f565b9250506040612d8e86828701612c02565b9150509250925092565b600080600060608486031215612dad57600080fd5b6000612dbb86828701612bd8565b9350506020612dcc86828701612bae565b9250506040612ddd86828701612bae565b9150509250925092565b600080600060608486031215612dfc57600080fd5b6000612e0a86828701612bd8565b9350506020612e1b86828701612bd8565b9250506040612e2c86828701612bd8565b9150509250925092565b612e3f81613850565b82525050565b612e4e81613850565b82525050565b612e5d81613862565b82525050565b612e6c8161386e565b82525050565b612e7b816138af565b82525050565b612e8a816138c1565b82525050565b6000612e9d60268361375e565b9150612ea882613931565b604082019050919050565b6000612ec060248361375e565b9150612ecb82613980565b604082019050919050565b6000612ee360228361375e565b9150612eee826139cf565b604082019050919050565b6000612f0660098361375e565b9150612f1182613a1e565b602082019050919050565b6000612f2960238361375e565b9150612f3482613a47565b604082019050919050565b6000612f4c60298361375e565b9150612f5782613a96565b604082019050919050565b6000612f6f60228361375e565b9150612f7a82613ae5565b604082019050919050565b6000612f9260218361375e565b9150612f9d82613b34565b604082019050919050565b6000612fb560208361375e565b9150612fc082613b83565b602082019050919050565b6000612fd860308361375e565b9150612fe382613bac565b604082019050919050565b6000612ffb601d8361375e565b915061300682613bfb565b602082019050919050565b600061301e60228361375e565b915061302982613c24565b604082019050919050565b6000613041603e8361375e565b915061304c82613c73565b604082019050919050565b600061306460268361375e565b915061306f82613cc2565b604082019050919050565b6000613087602b8361375e565b915061309282613d11565b604082019050919050565b610140820160008201516130b46000850182613169565b5060208201516130c76020850182612e36565b5060408201516130da6040850182613169565b5060608201516130ed6060850182613169565b5060808201516131006080850182613187565b5060a082015161311360a0850182612e36565b5060c082015161312660c0850182613169565b5060e082015161313960e0850182613169565b5061010082015161314e610100850182613169565b50610120820151613163610120850182613169565b50505050565b61317281613898565b82525050565b61318181613898565b82525050565b613190816138a2565b82525050565b61319f816138a2565b82525050565b60006020820190506131ba6000830184612e45565b92915050565b60006080820190506131d56000830187612e45565b6131e26020830186612e45565b6131ef6040830185612e45565b6131fc6060830184613178565b95945050505050565b600060608201905061321a6000830186612e45565b6132276020830185612e45565b6132346040830184613178565b949350505050565b60006040820190506132516000830185612e45565b61325e6020830184613178565b9392505050565b600060808201905061327a6000830187612e45565b6132876020830186613178565b6132946040830185612e45565b6132a16060830184613178565b95945050505050565b60006020820190506132bf6000830184612e54565b92915050565b600060208201905081810360008301526132de81612e90565b9050919050565b600060208201905081810360008301526132fe81612eb3565b9050919050565b6000602082019050818103600083015261331e81612ed6565b9050919050565b600060c082019050818103600083015261333e81612ef9565b905061334d6020830188613178565b61335a6040830187613178565b6133676060830186613178565b6133746080830185613178565b61338160a0830184613178565b9695505050505050565b600060208201905081810360008301526133a481612f1c565b9050919050565b600060208201905081810360008301526133c481612f3f565b9050919050565b600060208201905081810360008301526133e481612f62565b9050919050565b6000602082019050818103600083015261340481612f85565b9050919050565b6000602082019050818103600083015261342481612fa8565b9050919050565b6000602082019050818103600083015261344481612fcb565b9050919050565b6000602082019050818103600083015261346481612fee565b9050919050565b6000602082019050818103600083015261348481613011565b9050919050565b600060208201905081810360008301526134a481613034565b9050919050565b600060208201905081810360008301526134c481613057565b9050919050565b600060208201905081810360008301526134e48161307a565b9050919050565b600061014082019050613501600083018461309d565b92915050565b600060208201905061351c6000830184613178565b92915050565b60006060820190506135376000830186613178565b6135446020830185612e45565b6135516040830184612e81565b949350505050565b600060408201905061356e6000830185613178565b61357b6020830184612e63565b9392505050565b600060a0820190506135976000830188613178565b6135a46020830187612e63565b6135b16040830186612e63565b6135be6060830185613178565b6135cb6080830184612e45565b9695505050505050565b600060e0820190506135ea600083018a613178565b6135f76020830189613178565b6136046040830188612e45565b6136116060830187613178565b61361e6080830186612e45565b61362b60a0830185613196565b61363860c0830184612e45565b98975050505050505050565b60006101208201905061365a600083018c613178565b613667602083018b613178565b613674604083018a613178565b6136816060830189612e45565b61368e6080830188612e72565b61369b60a0830187612e63565b6136a860c0830186612e54565b6136b560e0830185613178565b6136c3610100830184612e63565b9a9950505050505050505050565b6000610120820190506136e7600083018c613178565b6136f4602083018b613178565b613701604083018a613178565b61370e6060830189612e45565b61371b6080830188613178565b61372860a0830187612e63565b61373560c0830186612e54565b61374260e0830185613178565b613750610100830184612e63565b9a9950505050505050505050565b600082825260208201905092915050565b600061377a82613898565b915061378583613898565b9250827fffffffffffffffffffffffffffffffffffffffffffffffffffffffffffffffff038211156137ba576137b96138d3565b5b828201905092915050565b60006137d082613898565b91506137db83613898565b9250826137eb576137ea613902565b5b828204905092915050565b600061380182613898565b915061380c83613898565b9250817fffffffffffffffffffffffffffffffffffffffffffffffffffffffffffffffff0483118215151615613845576138446138d3565b5b828202905092915050565b600061385b82613878565b9050919050565b60008115159050919050565b6000819050919050565b600073ffffffffffffffffffffffffffffffffffffffff82169050919050565b6000819050919050565b600060ff82169050919050565b60006138ba82613898565b9050919050565b60006138cc826138a2565b9050919050565b7f4e487b7100000000000000000000000000000000000000000000000000000000600052601160045260246000fd5b7f4e487b7100000000000000000000000000000000000000000000000000000000600052601260045260246000fd5b7f4f776e61626c653a206e6577206f776e657220697320746865207a65726f206160008201527f6464726573730000000000000000000000000000000000000000000000000000602082015250565b7f4e756c6c7352616e6b4d616e616765722f54686520706574206973206265617460008201527f696e672e00000000000000000000000000000000000000000000000000000000602082015250565b7f4e756c6c7352616e6b4d616e616765722f556e737570706f7274656420746f6b60008201527f656e000000000000000000000000000000000000000000000000000000000000602082015250565b7f6e756c6c732e6567670000000000000000000000000000000000000000000000600082015250565b7f4e756c6c7352616e6b4d616e616765722f556e737570706f7274656420746f6b60008201527f656e2e0000000000000000000000000000000000000000000000000000000000602082015250565b7f4e756c6c7352616e6b4d616e616765722f4974656d207665726966696361746960008201527f6f6e206661696c65640000000000000000000000000000000000000000000000602082015250565b7f4e756c6c7352616e6b4d616e616765722f50657420696420697320696c6c656760008201527f616c000000000000000000000000000000000000000000000000000000000000602082015250565b7f4e756c6c734f70656e45676756312f4973206e6f742066726f6d2070726f787960008201527f2e00000000000000000000000000000000000000000000000000000000000000602082015250565b7f4f776e61626c653a2063616c6c6572206973206e6f7420746865206f776e6572600082015250565b7f4e756c6c7352616e6b4d616e616765722f5468652064617461206f627461696e60008201527f6564206279204856206973206e756c6c00000000000000000000000000000000602082015250565b7f4e756c6c7352616e6b4d616e616765722f506574732061742072657374000000600082015250565b7f4e756c6c7352616e6b4d616e616765723a206578706972656420646561646c6960008201527f6e65000000000000000000000000000000000000000000000000000000000000602082015250565b7f4e756c6c7352616e6b4d616e616765722f5065747320646f206e6f742068617660008201527f6520746865206162696c69747920746f206f70656e207468652052616e6b0000602082015250565b7f4e756c6c7352616e6b4d616e616765722f556e737570706f72746564206d756c60008201527f7469706c652e0000000000000000000000000000000000000000000000000000602082015250565b7f4e756c6c7352616e6b4d616e616765722f446f206e6f7420726570656174206360008201527f6f6e73756d7074696f6e2e000000000000000000000000000000000000000000602082015250565b613d6981613850565b8114613d7457600080fd5b50565b613d8081613862565b8114613d8b57600080fd5b50565b613d978161386e565b8114613da257600080fd5b50565b613dae81613898565b8114613db957600080fd5b50565b613dc5816138a2565b8114613dd057600080fd5b5056fea2646970667358221220987456908ae55e649aa5c45e603090d1e571ddaae96a8f2cff37ffd43ed3816964736f6c63430008040033",
  "linkReferences": {},
  "deployedLinkReferences": {}
}