{
  "_format": "hh-sol-artifact-1",
  "contractName": "NullsEggToken",
  "sourceName": "contracts/v2/egg/NullsEggToken.sol",
  "abi": [
    {
      "inputs": [],
      "stateMutability": "nonpayable",
      "type": "constructor"
    },
    {
      "anonymous": false,
      "inputs": [
        {
          "indexed": true,
          "internalType": "address",
          "name": "owner",
          "type": "address"
        },
        {
          "indexed": true,
          "internalType": "address",
          "name": "spender",
          "type": "address"
        },
        {
          "indexed": false,
          "internalType": "uint256",
          "name": "value",
          "type": "uint256"
        }
      ],
      "name": "Approval",
      "type": "event"
    },
    {
      "anonymous": false,
      "inputs": [
        {
          "indexed": true,
          "internalType": "address",
          "name": "from",
          "type": "address"
        },
        {
          "indexed": true,
          "internalType": "address",
          "name": "to",
          "type": "address"
        },
        {
          "indexed": false,
          "internalType": "uint256",
          "name": "value",
          "type": "uint256"
        }
      ],
      "name": "Transfer",
      "type": "event"
    },
    {
      "inputs": [
        {
          "internalType": "address",
          "name": "owner",
          "type": "address"
        },
        {
          "internalType": "address",
          "name": "spender",
          "type": "address"
        }
      ],
      "name": "allowance",
      "outputs": [
        {
          "internalType": "uint256",
          "name": "",
          "type": "uint256"
        }
      ],
      "stateMutability": "view",
      "type": "function"
    },
    {
      "inputs": [
        {
          "internalType": "address",
          "name": "spender",
          "type": "address"
        },
        {
          "internalType": "uint256",
          "name": "amount",
          "type": "uint256"
        }
      ],
      "name": "approve",
      "outputs": [
        {
          "internalType": "bool",
          "name": "",
          "type": "bool"
        }
      ],
      "stateMutability": "nonpayable",
      "type": "function"
    },
    {
      "inputs": [
        {
          "internalType": "address",
          "name": "account",
          "type": "address"
        }
      ],
      "name": "balanceOf",
      "outputs": [
        {
          "internalType": "uint256",
          "name": "",
          "type": "uint256"
        }
      ],
      "stateMutability": "view",
      "type": "function"
    },
    {
      "inputs": [
        {
          "internalType": "address",
          "name": "player",
          "type": "address"
        },
        {
          "internalType": "uint256",
          "name": "total",
          "type": "uint256"
        }
      ],
      "name": "burn",
      "outputs": [],
      "stateMutability": "nonpayable",
      "type": "function"
    },
    {
      "inputs": [],
      "name": "decimals",
      "outputs": [
        {
          "internalType": "uint8",
          "name": "",
          "type": "uint8"
        }
      ],
      "stateMutability": "view",
      "type": "function"
    },
    {
      "inputs": [
        {
          "internalType": "address",
          "name": "spender",
          "type": "address"
        },
        {
          "internalType": "uint256",
          "name": "subtractedValue",
          "type": "uint256"
        }
      ],
      "name": "decreaseAllowance",
      "outputs": [
        {
          "internalType": "bool",
          "name": "",
          "type": "bool"
        }
      ],
      "stateMutability": "nonpayable",
      "type": "function"
    },
    {
      "inputs": [
        {
          "internalType": "address",
          "name": "spender",
          "type": "address"
        },
        {
          "internalType": "uint256",
          "name": "addedValue",
          "type": "uint256"
        }
      ],
      "name": "increaseAllowance",
      "outputs": [
        {
          "internalType": "bool",
          "name": "",
          "type": "bool"
        }
      ],
      "stateMutability": "nonpayable",
      "type": "function"
    },
    {
      "inputs": [
        {
          "internalType": "address",
          "name": "player",
          "type": "address"
        },
        {
          "internalType": "uint256",
          "name": "total",
          "type": "uint256"
        }
      ],
      "name": "mint",
      "outputs": [],
      "stateMutability": "nonpayable",
      "type": "function"
    },
    {
      "inputs": [
        {
          "internalType": "address",
          "name": "oper",
          "type": "address"
        }
      ],
      "name": "modifierOper",
      "outputs": [],
      "stateMutability": "nonpayable",
      "type": "function"
    },
    {
      "inputs": [
        {
          "internalType": "address",
          "name": "owner",
          "type": "address"
        }
      ],
      "name": "modifierOwner",
      "outputs": [],
      "stateMutability": "nonpayable",
      "type": "function"
    },
    {
      "inputs": [],
      "name": "name",
      "outputs": [
        {
          "internalType": "string",
          "name": "",
          "type": "string"
        }
      ],
      "stateMutability": "view",
      "type": "function"
    },
    {
      "inputs": [],
      "name": "symbol",
      "outputs": [
        {
          "internalType": "string",
          "name": "",
          "type": "string"
        }
      ],
      "stateMutability": "view",
      "type": "function"
    },
    {
      "inputs": [],
      "name": "totalSupply",
      "outputs": [
        {
          "internalType": "uint256",
          "name": "",
          "type": "uint256"
        }
      ],
      "stateMutability": "view",
      "type": "function"
    },
    {
      "inputs": [
        {
          "internalType": "address",
          "name": "recipient",
          "type": "address"
        },
        {
          "internalType": "uint256",
          "name": "amount",
          "type": "uint256"
        }
      ],
      "name": "transfer",
      "outputs": [
        {
          "internalType": "bool",
          "name": "",
          "type": "bool"
        }
      ],
      "stateMutability": "nonpayable",
      "type": "function"
    },
    {
      "inputs": [
        {
          "internalType": "address",
          "name": "sender",
          "type": "address"
        },
        {
          "internalType": "address",
          "name": "recipient",
          "type": "address"
        },
        {
          "internalType": "uint256",
          "name": "amount",
          "type": "uint256"
        }
      ],
      "name": "transferFrom",
      "outputs": [
        {
          "internalType": "bool",
          "name": "",
          "type": "bool"
        }
      ],
      "stateMutability": "nonpayable",
      "type": "function"
    }
  ],
  "bytecode": "0x60806040526000600660146101000a81548160ff021916908360ff1602179055503480156200002d57600080fd5b506040518060400160405280600f81526020017f4e756c6c7345676720546f6b656e2000000000000000000000000000000000008152506040518060400160405280600381526020017f45474700000000000000000000000000000000000000000000000000000000008152508160039080519060200190620000b292919062000156565b508060049080519060200190620000cb92919062000156565b50505033600560006101000a81548173ffffffffffffffffffffffffffffffffffffffff021916908373ffffffffffffffffffffffffffffffffffffffff16021790555033600660006101000a81548173ffffffffffffffffffffffffffffffffffffffff021916908373ffffffffffffffffffffffffffffffffffffffff1602179055506200026b565b828054620001649062000206565b90600052602060002090601f016020900481019282620001885760008555620001d4565b82601f10620001a357805160ff1916838001178555620001d4565b82800160010185558215620001d4579182015b82811115620001d3578251825591602001919060010190620001b6565b5b509050620001e39190620001e7565b5090565b5b8082111562000202576000816000905550600101620001e8565b5090565b600060028204905060018216806200021f57607f821691505b602082108114156200023657620002356200023c565b5b50919050565b7f4e487b7100000000000000000000000000000000000000000000000000000000600052602260045260246000fd5b611d16806200027b6000396000f3fe608060405234801561001057600080fd5b50600436106100f55760003560e01c80634fb555db11610097578063a457c2d711610066578063a457c2d714610286578063a9059cbb146102b6578063c27735e1146102e6578063dd62ed3e14610302576100f5565b80634fb555db1461020057806370a082311461021c57806395d89b411461024c5780639dc29fac1461026a576100f5565b806323b872dd116100d357806323b872dd14610166578063313ce5671461019657806339509351146101b457806340c10f19146101e4576100f5565b806306fdde03146100fa578063095ea7b31461011857806318160ddd14610148575b600080fd5b610102610332565b60405161010f91906115c9565b60405180910390f35b610132600480360381019061012d9190611368565b6103c4565b60405161013f91906115ae565b60405180910390f35b6101506103e2565b60405161015d919061176b565b60405180910390f35b610180600480360381019061017b9190611319565b6103ec565b60405161018d91906115ae565b60405180910390f35b61019e6104e4565b6040516101ab9190611786565b60405180910390f35b6101ce60048036038101906101c99190611368565b6104fb565b6040516101db91906115ae565b60405180910390f35b6101fe60048036038101906101f99190611368565b6105a7565b005b61021a600480360381019061021591906112b4565b610645565b005b610236600480360381019061023191906112b4565b610719565b604051610243919061176b565b60405180910390f35b610254610761565b60405161026191906115c9565b60405180910390f35b610284600480360381019061027f9190611368565b6107f3565b005b6102a0600480360381019061029b9190611368565b610891565b6040516102ad91906115ae565b60405180910390f35b6102d060048036038101906102cb9190611368565b61097c565b6040516102dd91906115ae565b60405180910390f35b61030060048036038101906102fb91906112b4565b61099a565b005b61031c600480360381019061031791906112dd565b610a6e565b604051610329919061176b565b60405180910390f35b606060038054610341906118cf565b80601f016020809104026020016040519081016040528092919081815260200182805461036d906118cf565b80156103ba5780601f1061038f576101008083540402835291602001916103ba565b820191906000526020600020905b81548152906001019060200180831161039d57829003601f168201915b5050505050905090565b60006103d86103d1610af5565b8484610afd565b6001905092915050565b6000600254905090565b60006103f9848484610cc8565b6000600160008673ffffffffffffffffffffffffffffffffffffffff1673ffffffffffffffffffffffffffffffffffffffff1681526020019081526020016000206000610444610af5565b73ffffffffffffffffffffffffffffffffffffffff1673ffffffffffffffffffffffffffffffffffffffff168152602001908152602001600020549050828110156104c4576040517f08c379a00000000000000000000000000000000000000000000000000000000081526004016104bb906116ab565b60405180910390fd5b6104d8856104d0610af5565b858403610afd565b60019150509392505050565b6000600660149054906101000a900460ff16905090565b600061059d610508610af5565b848460016000610516610af5565b73ffffffffffffffffffffffffffffffffffffffff1673ffffffffffffffffffffffffffffffffffffffff16815260200190815260200160002060008873ffffffffffffffffffffffffffffffffffffffff1673ffffffffffffffffffffffffffffffffffffffff1681526020019081526020016000205461059891906117bd565b610afd565b6001905092915050565b600660009054906101000a900473ffffffffffffffffffffffffffffffffffffffff1673ffffffffffffffffffffffffffffffffffffffff163373ffffffffffffffffffffffffffffffffffffffff1614610637576040517f08c379a000000000000000000000000000000000000000000000000000000000815260040161062e9061166b565b60405180910390fd5b6106418282610f49565b5050565b600560009054906101000a900473ffffffffffffffffffffffffffffffffffffffff1673ffffffffffffffffffffffffffffffffffffffff163373ffffffffffffffffffffffffffffffffffffffff16146106d5576040517f08c379a00000000000000000000000000000000000000000000000000000000081526004016106cc9061168b565b60405180910390fd5b80600560006101000a81548173ffffffffffffffffffffffffffffffffffffffff021916908373ffffffffffffffffffffffffffffffffffffffff16021790555050565b60008060008373ffffffffffffffffffffffffffffffffffffffff1673ffffffffffffffffffffffffffffffffffffffff168152602001908152602001600020549050919050565b606060048054610770906118cf565b80601f016020809104026020016040519081016040528092919081815260200182805461079c906118cf565b80156107e95780601f106107be576101008083540402835291602001916107e9565b820191906000526020600020905b8154815290600101906020018083116107cc57829003601f168201915b5050505050905090565b600660009054906101000a900473ffffffffffffffffffffffffffffffffffffffff1673ffffffffffffffffffffffffffffffffffffffff163373ffffffffffffffffffffffffffffffffffffffff1614610883576040517f08c379a000000000000000000000000000000000000000000000000000000000815260040161087a9061166b565b60405180910390fd5b61088d82826110a9565b5050565b600080600160006108a0610af5565b73ffffffffffffffffffffffffffffffffffffffff1673ffffffffffffffffffffffffffffffffffffffff16815260200190815260200160002060008573ffffffffffffffffffffffffffffffffffffffff1673ffffffffffffffffffffffffffffffffffffffff1681526020019081526020016000205490508281101561095d576040517f08c379a00000000000000000000000000000000000000000000000000000000081526004016109549061172b565b60405180910390fd5b610971610968610af5565b85858403610afd565b600191505092915050565b6000610990610989610af5565b8484610cc8565b6001905092915050565b600560009054906101000a900473ffffffffffffffffffffffffffffffffffffffff1673ffffffffffffffffffffffffffffffffffffffff163373ffffffffffffffffffffffffffffffffffffffff1614610a2a576040517f08c379a0000000000000000000000000000000000000000000000000000000008152600401610a219061168b565b60405180910390fd5b80600660006101000a81548173ffffffffffffffffffffffffffffffffffffffff021916908373ffffffffffffffffffffffffffffffffffffffff16021790555050565b6000600160008473ffffffffffffffffffffffffffffffffffffffff1673ffffffffffffffffffffffffffffffffffffffff16815260200190815260200160002060008373ffffffffffffffffffffffffffffffffffffffff1673ffffffffffffffffffffffffffffffffffffffff16815260200190815260200160002054905092915050565b600033905090565b600073ffffffffffffffffffffffffffffffffffffffff168373ffffffffffffffffffffffffffffffffffffffff161415610b6d576040517f08c379a0000000000000000000000000000000000000000000000000000000008152600401610b649061170b565b60405180910390fd5b600073ffffffffffffffffffffffffffffffffffffffff168273ffffffffffffffffffffffffffffffffffffffff161415610bdd576040517f08c379a0000000000000000000000000000000000000000000000000000000008152600401610bd49061162b565b60405180910390fd5b80600160008573ffffffffffffffffffffffffffffffffffffffff1673ffffffffffffffffffffffffffffffffffffffff16815260200190815260200160002060008473ffffffffffffffffffffffffffffffffffffffff1673ffffffffffffffffffffffffffffffffffffffff168152602001908152602001600020819055508173ffffffffffffffffffffffffffffffffffffffff168373ffffffffffffffffffffffffffffffffffffffff167f8c5be1e5ebec7d5bd14f71427d1e84f3dd0314c0f7b2291e5b200ac8c7c3b92583604051610cbb919061176b565b60405180910390a3505050565b600073ffffffffffffffffffffffffffffffffffffffff168373ffffffffffffffffffffffffffffffffffffffff161415610d38576040517f08c379a0000000000000000000000000000000000000000000000000000000008152600401610d2f906116eb565b60405180910390fd5b600073ffffffffffffffffffffffffffffffffffffffff168273ffffffffffffffffffffffffffffffffffffffff161415610da8576040517f08c379a0000000000000000000000000000000000000000000000000000000008152600401610d9f906115eb565b60405180910390fd5b610db3838383611280565b60008060008573ffffffffffffffffffffffffffffffffffffffff1673ffffffffffffffffffffffffffffffffffffffff16815260200190815260200160002054905081811015610e39576040517f08c379a0000000000000000000000000000000000000000000000000000000008152600401610e309061164b565b60405180910390fd5b8181036000808673ffffffffffffffffffffffffffffffffffffffff1673ffffffffffffffffffffffffffffffffffffffff16815260200190815260200160002081905550816000808573ffffffffffffffffffffffffffffffffffffffff1673ffffffffffffffffffffffffffffffffffffffff1681526020019081526020016000206000828254610ecc91906117bd565b925050819055508273ffffffffffffffffffffffffffffffffffffffff168473ffffffffffffffffffffffffffffffffffffffff167fddf252ad1be2c89b69c2b068fc378daa952ba7f163c4a11628f55a4df523b3ef84604051610f30919061176b565b60405180910390a3610f43848484611285565b50505050565b600073ffffffffffffffffffffffffffffffffffffffff168273ffffffffffffffffffffffffffffffffffffffff161415610fb9576040517f08c379a0000000000000000000000000000000000000000000000000000000008152600401610fb09061174b565b60405180910390fd5b610fc560008383611280565b8060026000828254610fd791906117bd565b92505081905550806000808473ffffffffffffffffffffffffffffffffffffffff1673ffffffffffffffffffffffffffffffffffffffff168152602001908152602001600020600082825461102c91906117bd565b925050819055508173ffffffffffffffffffffffffffffffffffffffff16600073ffffffffffffffffffffffffffffffffffffffff167fddf252ad1be2c89b69c2b068fc378daa952ba7f163c4a11628f55a4df523b3ef83604051611091919061176b565b60405180910390a36110a560008383611285565b5050565b600073ffffffffffffffffffffffffffffffffffffffff168273ffffffffffffffffffffffffffffffffffffffff161415611119576040517f08c379a0000000000000000000000000000000000000000000000000000000008152600401611110906116cb565b60405180910390fd5b61112582600083611280565b60008060008473ffffffffffffffffffffffffffffffffffffffff1673ffffffffffffffffffffffffffffffffffffffff168152602001908152602001600020549050818110156111ab576040517f08c379a00000000000000000000000000000000000000000000000000000000081526004016111a29061160b565b60405180910390fd5b8181036000808573ffffffffffffffffffffffffffffffffffffffff1673ffffffffffffffffffffffffffffffffffffffff1681526020019081526020016000208190555081600260008282546112029190611813565b92505081905550600073ffffffffffffffffffffffffffffffffffffffff168373ffffffffffffffffffffffffffffffffffffffff167fddf252ad1be2c89b69c2b068fc378daa952ba7f163c4a11628f55a4df523b3ef84604051611267919061176b565b60405180910390a361127b83600084611285565b505050565b505050565b505050565b60008135905061129981611cb2565b92915050565b6000813590506112ae81611cc9565b92915050565b6000602082840312156112c657600080fd5b60006112d48482850161128a565b91505092915050565b600080604083850312156112f057600080fd5b60006112fe8582860161128a565b925050602061130f8582860161128a565b9150509250929050565b60008060006060848603121561132e57600080fd5b600061133c8682870161128a565b935050602061134d8682870161128a565b925050604061135e8682870161129f565b9150509250925092565b6000806040838503121561137b57600080fd5b60006113898582860161128a565b925050602061139a8582860161129f565b9150509250929050565b6113ad81611859565b82525050565b60006113be826117a1565b6113c881856117ac565b93506113d881856020860161189c565b6113e18161195f565b840191505092915050565b60006113f96023836117ac565b915061140482611970565b604082019050919050565b600061141c6022836117ac565b9150611427826119bf565b604082019050919050565b600061143f6022836117ac565b915061144a82611a0e565b604082019050919050565b60006114626026836117ac565b915061146d82611a5d565b604082019050919050565b6000611485601d836117ac565b915061149082611aac565b602082019050919050565b60006114a86018836117ac565b91506114b382611ad5565b602082019050919050565b60006114cb6028836117ac565b91506114d682611afe565b604082019050919050565b60006114ee6021836117ac565b91506114f982611b4d565b604082019050919050565b60006115116025836117ac565b915061151c82611b9c565b604082019050919050565b60006115346024836117ac565b915061153f82611beb565b604082019050919050565b60006115576025836117ac565b915061156282611c3a565b604082019050919050565b600061157a601f836117ac565b915061158582611c89565b602082019050919050565b61159981611885565b82525050565b6115a88161188f565b82525050565b60006020820190506115c360008301846113a4565b92915050565b600060208201905081810360008301526115e381846113b3565b905092915050565b60006020820190508181036000830152611604816113ec565b9050919050565b600060208201905081810360008301526116248161140f565b9050919050565b6000602082019050818103600083015261164481611432565b9050919050565b6000602082019050818103600083015261166481611455565b9050919050565b6000602082019050818103600083015261168481611478565b9050919050565b600060208201905081810360008301526116a48161149b565b9050919050565b600060208201905081810360008301526116c4816114be565b9050919050565b600060208201905081810360008301526116e4816114e1565b9050919050565b6000602082019050818103600083015261170481611504565b9050919050565b6000602082019050818103600083015261172481611527565b9050919050565b600060208201905081810360008301526117448161154a565b9050919050565b600060208201905081810360008301526117648161156d565b9050919050565b60006020820190506117806000830184611590565b92915050565b600060208201905061179b600083018461159f565b92915050565b600081519050919050565b600082825260208201905092915050565b60006117c882611885565b91506117d383611885565b9250827fffffffffffffffffffffffffffffffffffffffffffffffffffffffffffffffff0382111561180857611807611901565b5b828201905092915050565b600061181e82611885565b915061182983611885565b92508282101561183c5761183b611901565b5b828203905092915050565b600061185282611865565b9050919050565b60008115159050919050565b600073ffffffffffffffffffffffffffffffffffffffff82169050919050565b6000819050919050565b600060ff82169050919050565b60005b838110156118ba57808201518184015260208101905061189f565b838111156118c9576000848401525b50505050565b600060028204905060018216806118e757607f821691505b602082108114156118fb576118fa611930565b5b50919050565b7f4e487b7100000000000000000000000000000000000000000000000000000000600052601160045260246000fd5b7f4e487b7100000000000000000000000000000000000000000000000000000000600052602260045260246000fd5b6000601f19601f8301169050919050565b7f45524332303a207472616e7366657220746f20746865207a65726f206164647260008201527f6573730000000000000000000000000000000000000000000000000000000000602082015250565b7f45524332303a206275726e20616d6f756e7420657863656564732062616c616e60008201527f6365000000000000000000000000000000000000000000000000000000000000602082015250565b7f45524332303a20617070726f766520746f20746865207a65726f20616464726560008201527f7373000000000000000000000000000000000000000000000000000000000000602082015250565b7f45524332303a207472616e7366657220616d6f756e742065786365656473206260008201527f616c616e63650000000000000000000000000000000000000000000000000000602082015250565b7f4e756c6c73576f726c64546f6b656e2f4e6f206f70657220726f6c652e000000600082015250565b7f4e756c6c73576f726c64546f6b656e2f4e6f20726f6c652e0000000000000000600082015250565b7f45524332303a207472616e7366657220616d6f756e742065786365656473206160008201527f6c6c6f77616e6365000000000000000000000000000000000000000000000000602082015250565b7f45524332303a206275726e2066726f6d20746865207a65726f2061646472657360008201527f7300000000000000000000000000000000000000000000000000000000000000602082015250565b7f45524332303a207472616e736665722066726f6d20746865207a65726f20616460008201527f6472657373000000000000000000000000000000000000000000000000000000602082015250565b7f45524332303a20617070726f76652066726f6d20746865207a65726f2061646460008201527f7265737300000000000000000000000000000000000000000000000000000000602082015250565b7f45524332303a2064656372656173656420616c6c6f77616e63652062656c6f7760008201527f207a65726f000000000000000000000000000000000000000000000000000000602082015250565b7f45524332303a206d696e7420746f20746865207a65726f206164647265737300600082015250565b611cbb81611847565b8114611cc657600080fd5b50565b611cd281611885565b8114611cdd57600080fd5b5056fea264697066735822122040da9ac962d93f33cf634cd64dbfdbde7faabf4ba9b5a4b332c515d1b61deb1964736f6c63430008040033",
  "linkReferences": {},
  "deployedLinkReferences": {}
}