{
  "_format": "hh-sol-artifact-1",
  "contractName": "NullsWorldCore",
  "sourceName": "contracts/v2/NullsWorldCore.sol",
  "abi": [
    {
      "inputs": [
        {
          "internalType": "address",
          "name": "router",
          "type": "address"
        }
      ],
      "stateMutability": "nonpayable",
      "type": "constructor"
    },
    {
      "anonymous": false,
      "inputs": [
        {
          "indexed": true,
          "internalType": "address",
          "name": "previousOwner",
          "type": "address"
        },
        {
          "indexed": true,
          "internalType": "address",
          "name": "newOwner",
          "type": "address"
        }
      ],
      "name": "OwnershipTransferred",
      "type": "event"
    },
    {
      "anonymous": false,
      "inputs": [
        {
          "indexed": false,
          "internalType": "uint256",
          "name": "item",
          "type": "uint256"
        },
        {
          "indexed": false,
          "internalType": "address",
          "name": "player",
          "type": "address"
        },
        {
          "indexed": false,
          "internalType": "bytes32",
          "name": "hv",
          "type": "bytes32"
        },
        {
          "indexed": false,
          "internalType": "bytes32",
          "name": "key",
          "type": "bytes32"
        }
      ],
      "name": "ZKRandomMessage",
      "type": "event"
    },
    {
      "inputs": [
        {
          "internalType": "uint8",
          "name": "timesValue",
          "type": "uint8"
        }
      ],
      "name": "addBound",
      "outputs": [],
      "stateMutability": "nonpayable",
      "type": "function"
    },
    {
      "inputs": [
        {
          "internalType": "address",
          "name": "user",
          "type": "address"
        }
      ],
      "name": "addNewItemWhiteList",
      "outputs": [],
      "stateMutability": "nonpayable",
      "type": "function"
    },
    {
      "inputs": [
        {
          "internalType": "uint256",
          "name": "itemId",
          "type": "uint256"
        },
        {
          "internalType": "address",
          "name": "pubkey",
          "type": "address"
        }
      ],
      "name": "addPubkeyAsync",
      "outputs": [],
      "stateMutability": "nonpayable",
      "type": "function"
    },
    {
      "inputs": [],
      "name": "applyUnBond",
      "outputs": [],
      "stateMutability": "nonpayable",
      "type": "function"
    },
    {
      "inputs": [
        {
          "internalType": "address",
          "name": "tokenAddr",
          "type": "address"
        },
        {
          "internalType": "uint256",
          "name": "amount",
          "type": "uint256"
        }
      ],
      "name": "approve",
      "outputs": [],
      "stateMutability": "nonpayable",
      "type": "function"
    },
    {
      "inputs": [
        {
          "internalType": "uint256",
          "name": "itemId",
          "type": "uint256"
        },
        {
          "internalType": "bytes32",
          "name": "hv",
          "type": "bytes32"
        }
      ],
      "name": "getNonce",
      "outputs": [
        {
          "internalType": "bytes32",
          "name": "requestKey",
          "type": "bytes32"
        }
      ],
      "stateMutability": "nonpayable",
      "type": "function"
    },
    {
      "inputs": [
        {
          "internalType": "uint256",
          "name": "sceneId",
          "type": "uint256"
        },
        {
          "internalType": "address",
          "name": "pubkey",
          "type": "address"
        },
        {
          "internalType": "uint8",
          "name": "model",
          "type": "uint8"
        }
      ],
      "name": "newItem",
      "outputs": [
        {
          "internalType": "uint256",
          "name": "itemId",
          "type": "uint256"
        }
      ],
      "stateMutability": "nonpayable",
      "type": "function"
    },
    {
      "inputs": [
        {
          "internalType": "address",
          "name": "addr",
          "type": "address"
        }
      ],
      "name": "newScene",
      "outputs": [
        {
          "internalType": "uint256",
          "name": "sceneId",
          "type": "uint256"
        }
      ],
      "stateMutability": "nonpayable",
      "type": "function"
    },
    {
      "inputs": [
        {
          "internalType": "uint256",
          "name": "item",
          "type": "uint256"
        },
        {
          "internalType": "bytes32",
          "name": "key",
          "type": "bytes32"
        },
        {
          "internalType": "bytes32",
          "name": "rv",
          "type": "bytes32"
        }
      ],
      "name": "notify",
      "outputs": [
        {
          "internalType": "bool",
          "name": "",
          "type": "bool"
        }
      ],
      "stateMutability": "nonpayable",
      "type": "function"
    },
    {
      "inputs": [],
      "name": "owner",
      "outputs": [
        {
          "internalType": "address",
          "name": "",
          "type": "address"
        }
      ],
      "stateMutability": "view",
      "type": "function"
    },
    {
      "inputs": [
        {
          "internalType": "bytes32",
          "name": "key",
          "type": "bytes32"
        },
        {
          "internalType": "uint256",
          "name": "deadline",
          "type": "uint256"
        },
        {
          "internalType": "uint8",
          "name": "v",
          "type": "uint8"
        },
        {
          "internalType": "bytes32",
          "name": "r",
          "type": "bytes32"
        },
        {
          "internalType": "bytes32",
          "name": "s",
          "type": "bytes32"
        }
      ],
      "name": "play",
      "outputs": [],
      "stateMutability": "nonpayable",
      "type": "function"
    },
    {
      "inputs": [
        {
          "internalType": "uint256",
          "name": "itemId",
          "type": "uint256"
        },
        {
          "internalType": "bytes",
          "name": "prikey",
          "type": "bytes"
        }
      ],
      "name": "publishPrivateKey",
      "outputs": [],
      "stateMutability": "nonpayable",
      "type": "function"
    },
    {
      "inputs": [
        {
          "internalType": "string",
          "name": "gameName",
          "type": "string"
        },
        {
          "internalType": "uint256",
          "name": "depositAmt",
          "type": "uint256"
        }
      ],
      "name": "registerGame",
      "outputs": [],
      "stateMutability": "nonpayable",
      "type": "function"
    },
    {
      "inputs": [],
      "name": "renounceOwnership",
      "outputs": [],
      "stateMutability": "nonpayable",
      "type": "function"
    },
    {
      "inputs": [
        {
          "internalType": "address",
          "name": "newOwner",
          "type": "address"
        }
      ],
      "name": "transferOwnership",
      "outputs": [],
      "stateMutability": "nonpayable",
      "type": "function"
    },
    {
      "inputs": [
        {
          "internalType": "address",
          "name": "tokenAddr",
          "type": "address"
        },
        {
          "internalType": "uint256",
          "name": "amount",
          "type": "uint256"
        }
      ],
      "name": "withdraw",
      "outputs": [],
      "stateMutability": "nonpayable",
      "type": "function"
    },
    {
      "inputs": [],
      "name": "withdrawInZkRandom",
      "outputs": [],
      "stateMutability": "nonpayable",
      "type": "function"
    }
  ],
  "bytecode": "0x60806040526001600660006101000a81548160ff0219169083151502179055503480156200002c57600080fd5b506040516200233d3803806200233d83398181016040528101906200005291906200019d565b6200007262000066620000ba60201b60201c565b620000c260201b60201c565b80600260006101000a81548173ffffffffffffffffffffffffffffffffffffffff021916908373ffffffffffffffffffffffffffffffffffffffff1602179055505062000217565b600033905090565b60008060009054906101000a900473ffffffffffffffffffffffffffffffffffffffff169050816000806101000a81548173ffffffffffffffffffffffffffffffffffffffff021916908373ffffffffffffffffffffffffffffffffffffffff1602179055508173ffffffffffffffffffffffffffffffffffffffff168173ffffffffffffffffffffffffffffffffffffffff167f8be0079c531659141344cd1fd0a4f28419497f9722a3daafe3b4186f6b6457e060405160405180910390a35050565b6000815190506200019781620001fd565b92915050565b600060208284031215620001b057600080fd5b6000620001c08482850162000186565b91505092915050565b6000620001d682620001dd565b9050919050565b600073ffffffffffffffffffffffffffffffffffffffff82169050919050565b6200020881620001c9565b81146200021457600080fd5b50565b61211680620002276000396000f3fe608060405234801561001057600080fd5b506004361061010b5760003560e01c80638d5c2cfa116100a2578063de78aa2211610071578063de78aa221461028e578063ea3aaf81146102aa578063f2fde38b146102b4578063f3fef3a3146102d0578063fcf21dbf146102ec5761010b565b80638d5c2cfa1461022e5780638da5cb5b1461024a5780638ded518a14610268578063c056ca92146102725761010b565b80635d23b9c4116100de5780635d23b9c41461019457806363cb85e1146101c4578063715018a6146101f457806377e10027146101fe5761010b565b8063095ea7b31461011057806332d12a661461012c5780633900ee581461015c57806355d5cc8214610178575b600080fd5b61012a6004803603810190610125919061164d565b610308565b005b6101466004803603810190610141919061180b565b6104ca565b6040516101539190611c6d565b60405180910390f35b610176600480360381019061017191906118e5565b610680565b005b610192600480360381019061018d9190611939565b61078f565b005b6101ae60048036038101906101a9919061185a565b610823565b6040516101bb9190611b41565b60405180910390f35b6101de60048036038101906101d99190611624565b6108de565b6040516101eb9190611c6d565b60405180910390f35b6101fc610a2e565b005b61021860048036038101906102139190611896565b610ab6565b6040516102259190611b26565b60405180910390f35b61024860048036038101906102439190611752565b610bd2565b005b610252610d09565b60405161025f9190611aab565b60405180910390f35b610270610d32565b005b61028c600480360381019061028791906116db565b610e3f565b005b6102a860048036038101906102a391906117cf565b610efc565b005b6102b261100b565b005b6102ce60048036038101906102c99190611624565b611118565b005b6102ea60048036038101906102e5919061164d565b611210565b005b61030660048036038101906103019190611624565b61131e565b005b6103106113f5565b73ffffffffffffffffffffffffffffffffffffffff1661032e610d09565b73ffffffffffffffffffffffffffffffffffffffff1614610384576040517f08c379a000000000000000000000000000000000000000000000000000000000815260040161037b90611c2d565b60405180910390fd5b600073ffffffffffffffffffffffffffffffffffffffff16600260009054906101000a900473ffffffffffffffffffffffffffffffffffffffff1673ffffffffffffffffffffffffffffffffffffffff161415610416576040517f08c379a000000000000000000000000000000000000000000000000000000000815260040161040d90611c4d565b60405180910390fd5b8173ffffffffffffffffffffffffffffffffffffffff1663095ea7b3600260009054906101000a900473ffffffffffffffffffffffffffffffffffffffff16836040518363ffffffff1660e01b8152600401610473929190611ac6565b602060405180830381600087803b15801561048d57600080fd5b505af11580156104a1573d6000803e3d6000fd5b505050506040513d601f19601f820116820180604052508101906104c59190611689565b505050565b60006104d46113f5565b73ffffffffffffffffffffffffffffffffffffffff166104f2610d09565b73ffffffffffffffffffffffffffffffffffffffff16148061056b5750600115156007600061051f6113f5565b73ffffffffffffffffffffffffffffffffffffffff1673ffffffffffffffffffffffffffffffffffffffff16815260200190815260200160002060009054906101000a900460ff161515145b6105aa576040517f08c379a00000000000000000000000000000000000000000000000000000000081526004016105a190611c0d565b60405180910390fd5b600260009054906101000a900473ffffffffffffffffffffffffffffffffffffffff1673ffffffffffffffffffffffffffffffffffffffff1663f8e172146003543086866040518563ffffffff1660e01b815260040161060d9493929190611cb1565b602060405180830381600087803b15801561062757600080fd5b505af115801561063b573d6000803e3d6000fd5b505050506040513d601f19601f8201168201806040525081019061065f91906117a6565b90508360046000838152602001908152602001600020819055509392505050565b6106886113f5565b73ffffffffffffffffffffffffffffffffffffffff166106a6610d09565b73ffffffffffffffffffffffffffffffffffffffff16146106fc576040517f08c379a00000000000000000000000000000000000000000000000000000000081526004016106f390611c2d565b60405180910390fd5b600260009054906101000a900473ffffffffffffffffffffffffffffffffffffffff1673ffffffffffffffffffffffffffffffffffffffff16633900ee5883836040518363ffffffff1660e01b8152600401610759929190611d2d565b600060405180830381600087803b15801561077357600080fd5b505af1158015610787573d6000803e3d6000fd5b505050505050565b600260009054906101000a900473ffffffffffffffffffffffffffffffffffffffff1673ffffffffffffffffffffffffffffffffffffffff1663cc7a7273600354836040518363ffffffff1660e01b81526004016107ee929190611d5d565b600060405180830381600087803b15801561080857600080fd5b505af115801561081c573d6000803e3d6000fd5b5050505050565b6000600260009054906101000a900473ffffffffffffffffffffffffffffffffffffffff1673ffffffffffffffffffffffffffffffffffffffff1663a448d8193085856040518463ffffffff1660e01b815260040161088493929190611aef565b602060405180830381600087803b15801561089e57600080fd5b505af11580156108b2573d6000803e3d6000fd5b505050506040513d601f19601f820116820180604052508101906108d691906116b2565b905092915050565b60006108e86113f5565b73ffffffffffffffffffffffffffffffffffffffff16610906610d09565b73ffffffffffffffffffffffffffffffffffffffff16148061097f575060011515600760006109336113f5565b73ffffffffffffffffffffffffffffffffffffffff1673ffffffffffffffffffffffffffffffffffffffff16815260200190815260200160002060009054906101000a900460ff161515145b6109be576040517f08c379a00000000000000000000000000000000000000000000000000000000081526004016109b590611c0d565b60405180910390fd5b60058054905090506005829080600181540180825580915050600190039060005260206000200160009091909190916101000a81548173ffffffffffffffffffffffffffffffffffffffff021916908373ffffffffffffffffffffffffffffffffffffffff160217905550919050565b610a366113f5565b73ffffffffffffffffffffffffffffffffffffffff16610a54610d09565b73ffffffffffffffffffffffffffffffffffffffff1614610aaa576040517f08c379a0000000000000000000000000000000000000000000000000000000008152600401610aa190611c2d565b60405180910390fd5b610ab460006113fd565b565b60008060046000868152602001908152602001600020549050600060058281548110610b0b577f4e487b7100000000000000000000000000000000000000000000000000000000600052603260045260246000fd5b9060005260206000200160009054906101000a900473ffffffffffffffffffffffffffffffffffffffff1690508073ffffffffffffffffffffffffffffffffffffffff166377e100278787876040518463ffffffff1660e01b8152600401610b7593929190611cf6565b602060405180830381600087803b158015610b8f57600080fd5b505af1158015610ba3573d6000803e3d6000fd5b505050506040513d601f19601f82011682018060405250810190610bc79190611689565b925050509392505050565b610bda6113f5565b73ffffffffffffffffffffffffffffffffffffffff16610bf8610d09565b73ffffffffffffffffffffffffffffffffffffffff1614610c4e576040517f08c379a0000000000000000000000000000000000000000000000000000000008152600401610c4590611c2d565b60405180910390fd5b600260009054906101000a900473ffffffffffffffffffffffffffffffffffffffff1673ffffffffffffffffffffffffffffffffffffffff1663a3bda7ea8330846040518463ffffffff1660e01b8152600401610cad93929190611baf565b602060405180830381600087803b158015610cc757600080fd5b505af1158015610cdb573d6000803e3d6000fd5b505050506040513d601f19601f82011682018060405250810190610cff91906117a6565b6003819055505050565b60008060009054906101000a900473ffffffffffffffffffffffffffffffffffffffff16905090565b610d3a6113f5565b73ffffffffffffffffffffffffffffffffffffffff16610d58610d09565b73ffffffffffffffffffffffffffffffffffffffff1614610dae576040517f08c379a0000000000000000000000000000000000000000000000000000000008152600401610da590611c2d565b60405180910390fd5b600260009054906101000a900473ffffffffffffffffffffffffffffffffffffffff1673ffffffffffffffffffffffffffffffffffffffff1663621022be6003546040518263ffffffff1660e01b8152600401610e0b9190611c6d565b600060405180830381600087803b158015610e2557600080fd5b505af1158015610e39573d6000803e3d6000fd5b50505050565b600260009054906101000a900473ffffffffffffffffffffffffffffffffffffffff1673ffffffffffffffffffffffffffffffffffffffff1663022f11d286868686866040518663ffffffff1660e01b8152600401610ea2959493929190611b5c565b602060405180830381600087803b158015610ebc57600080fd5b505af1158015610ed0573d6000803e3d6000fd5b505050506040513d601f19601f82011682018060405250810190610ef491906116b2565b505050505050565b610f046113f5565b73ffffffffffffffffffffffffffffffffffffffff16610f22610d09565b73ffffffffffffffffffffffffffffffffffffffff1614610f78576040517f08c379a0000000000000000000000000000000000000000000000000000000008152600401610f6f90611c2d565b60405180910390fd5b600260009054906101000a900473ffffffffffffffffffffffffffffffffffffffff1673ffffffffffffffffffffffffffffffffffffffff16637dbf39e483836040518363ffffffff1660e01b8152600401610fd5929190611c88565b600060405180830381600087803b158015610fef57600080fd5b505af1158015611003573d6000803e3d6000fd5b505050505050565b6110136113f5565b73ffffffffffffffffffffffffffffffffffffffff16611031610d09565b73ffffffffffffffffffffffffffffffffffffffff1614611087576040517f08c379a000000000000000000000000000000000000000000000000000000000815260040161107e90611c2d565b60405180910390fd5b600260009054906101000a900473ffffffffffffffffffffffffffffffffffffffff1673ffffffffffffffffffffffffffffffffffffffff16632e1a7d4d6003546040518263ffffffff1660e01b81526004016110e49190611c6d565b600060405180830381600087803b1580156110fe57600080fd5b505af1158015611112573d6000803e3d6000fd5b50505050565b6111206113f5565b73ffffffffffffffffffffffffffffffffffffffff1661113e610d09565b73ffffffffffffffffffffffffffffffffffffffff1614611194576040517f08c379a000000000000000000000000000000000000000000000000000000000815260040161118b90611c2d565b60405180910390fd5b600073ffffffffffffffffffffffffffffffffffffffff168173ffffffffffffffffffffffffffffffffffffffff161415611204576040517f08c379a00000000000000000000000000000000000000000000000000000000081526004016111fb90611bed565b60405180910390fd5b61120d816113fd565b50565b6112186113f5565b73ffffffffffffffffffffffffffffffffffffffff16611236610d09565b73ffffffffffffffffffffffffffffffffffffffff161461128c576040517f08c379a000000000000000000000000000000000000000000000000000000000815260040161128390611c2d565b60405180910390fd5b8173ffffffffffffffffffffffffffffffffffffffff1663a9059cbb33836040518363ffffffff1660e01b81526004016112c7929190611ac6565b602060405180830381600087803b1580156112e157600080fd5b505af11580156112f5573d6000803e3d6000fd5b505050506040513d601f19601f820116820180604052508101906113199190611689565b505050565b6113266113f5565b73ffffffffffffffffffffffffffffffffffffffff16611344610d09565b73ffffffffffffffffffffffffffffffffffffffff161461139a576040517f08c379a000000000000000000000000000000000000000000000000000000000815260040161139190611c2d565b60405180910390fd5b6001600760008373ffffffffffffffffffffffffffffffffffffffff1673ffffffffffffffffffffffffffffffffffffffff16815260200190815260200160002060006101000a81548160ff02191690831515021790555050565b600033905090565b60008060009054906101000a900473ffffffffffffffffffffffffffffffffffffffff169050816000806101000a81548173ffffffffffffffffffffffffffffffffffffffff021916908373ffffffffffffffffffffffffffffffffffffffff1602179055508173ffffffffffffffffffffffffffffffffffffffff168173ffffffffffffffffffffffffffffffffffffffff167f8be0079c531659141344cd1fd0a4f28419497f9722a3daafe3b4186f6b6457e060405160405180910390a35050565b60006114d46114cf84611dab565b611d86565b9050828152602081018484840111156114ec57600080fd5b6114f7848285611ea4565b509392505050565b600061151261150d84611ddc565b611d86565b90508281526020810184848401111561152a57600080fd5b611535848285611ea4565b509392505050565b60008135905061154c8161206d565b92915050565b60008151905061156181612084565b92915050565b6000813590506115768161209b565b92915050565b60008151905061158b8161209b565b92915050565b600082601f8301126115a257600080fd5b81356115b28482602086016114c1565b91505092915050565b600082601f8301126115cc57600080fd5b81356115dc8482602086016114ff565b91505092915050565b6000813590506115f4816120b2565b92915050565b600081519050611609816120b2565b92915050565b60008135905061161e816120c9565b92915050565b60006020828403121561163657600080fd5b60006116448482850161153d565b91505092915050565b6000806040838503121561166057600080fd5b600061166e8582860161153d565b925050602061167f858286016115e5565b9150509250929050565b60006020828403121561169b57600080fd5b60006116a984828501611552565b91505092915050565b6000602082840312156116c457600080fd5b60006116d28482850161157c565b91505092915050565b600080600080600060a086880312156116f357600080fd5b600061170188828901611567565b9550506020611712888289016115e5565b94505060406117238882890161160f565b935050606061173488828901611567565b925050608061174588828901611567565b9150509295509295909350565b6000806040838503121561176557600080fd5b600083013567ffffffffffffffff81111561177f57600080fd5b61178b858286016115bb565b925050602061179c858286016115e5565b9150509250929050565b6000602082840312156117b857600080fd5b60006117c6848285016115fa565b91505092915050565b600080604083850312156117e257600080fd5b60006117f0858286016115e5565b92505060206118018582860161153d565b9150509250929050565b60008060006060848603121561182057600080fd5b600061182e868287016115e5565b935050602061183f8682870161153d565b92505060406118508682870161160f565b9150509250925092565b6000806040838503121561186d57600080fd5b600061187b858286016115e5565b925050602061188c85828601611567565b9150509250929050565b6000806000606084860312156118ab57600080fd5b60006118b9868287016115e5565b93505060206118ca86828701611567565b92505060406118db86828701611567565b9150509250925092565b600080604083850312156118f857600080fd5b6000611906858286016115e5565b925050602083013567ffffffffffffffff81111561192357600080fd5b61192f85828601611591565b9150509250929050565b60006020828403121561194b57600080fd5b60006119598482850161160f565b91505092915050565b61196b81611e45565b82525050565b61197a81611e57565b82525050565b61198981611e63565b82525050565b600061199a82611e0d565b6119a48185611e23565b93506119b4818560208601611eb3565b6119bd81611f46565b840191505092915050565b60006119d382611e18565b6119dd8185611e34565b93506119ed818560208601611eb3565b6119f681611f46565b840191505092915050565b6000611a0e602683611e34565b9150611a1982611f57565b604082019050919050565b6000611a31602e83611e34565b9150611a3c82611fa6565b604082019050919050565b6000611a54602083611e34565b9150611a5f82611ff5565b602082019050919050565b6000611a77602483611e34565b9150611a828261201e565b604082019050919050565b611a9681611e8d565b82525050565b611aa581611e97565b82525050565b6000602082019050611ac06000830184611962565b92915050565b6000604082019050611adb6000830185611962565b611ae86020830184611a8d565b9392505050565b6000606082019050611b046000830186611962565b611b116020830185611a8d565b611b1e6040830184611980565b949350505050565b6000602082019050611b3b6000830184611971565b92915050565b6000602082019050611b566000830184611980565b92915050565b600060a082019050611b716000830188611980565b611b7e6020830187611a8d565b611b8b6040830186611a9c565b611b986060830185611980565b611ba56080830184611980565b9695505050505050565b60006060820190508181036000830152611bc981866119c8565b9050611bd86020830185611962565b611be56040830184611a8d565b949350505050565b60006020820190508181036000830152611c0681611a01565b9050919050565b60006020820190508181036000830152611c2681611a24565b9050919050565b60006020820190508181036000830152611c4681611a47565b9050919050565b60006020820190508181036000830152611c6681611a6a565b9050919050565b6000602082019050611c826000830184611a8d565b92915050565b6000604082019050611c9d6000830185611a8d565b611caa6020830184611962565b9392505050565b6000608082019050611cc66000830187611a8d565b611cd36020830186611962565b611ce06040830185611962565b611ced6060830184611a9c565b95945050505050565b6000606082019050611d0b6000830186611a8d565b611d186020830185611980565b611d256040830184611980565b949350505050565b6000604082019050611d426000830185611a8d565b8181036020830152611d54818461198f565b90509392505050565b6000604082019050611d726000830185611a8d565b611d7f6020830184611a9c565b9392505050565b6000611d90611da1565b9050611d9c8282611ee6565b919050565b6000604051905090565b600067ffffffffffffffff821115611dc657611dc5611f17565b5b611dcf82611f46565b9050602081019050919050565b600067ffffffffffffffff821115611df757611df6611f17565b5b611e0082611f46565b9050602081019050919050565b600081519050919050565b600081519050919050565b600082825260208201905092915050565b600082825260208201905092915050565b6000611e5082611e6d565b9050919050565b60008115159050919050565b6000819050919050565b600073ffffffffffffffffffffffffffffffffffffffff82169050919050565b6000819050919050565b600060ff82169050919050565b82818337600083830152505050565b60005b83811015611ed1578082015181840152602081019050611eb6565b83811115611ee0576000848401525b50505050565b611eef82611f46565b810181811067ffffffffffffffff82111715611f0e57611f0d611f17565b5b80604052505050565b7f4e487b7100000000000000000000000000000000000000000000000000000000600052604160045260246000fd5b6000601f19601f8301169050919050565b7f4f776e61626c653a206e6577206f776e657220697320746865207a65726f206160008201527f6464726573730000000000000000000000000000000000000000000000000000602082015250565b7f4f776e61626c653a2063616c6c6572206973206e6f7420746865206f776e657260008201527f206f72207768697465206c697374000000000000000000000000000000000000602082015250565b7f4f776e61626c653a2063616c6c6572206973206e6f7420746865206f776e6572600082015250565b7f4e756c6c73576f726c64436f72652f546172676574206163636f756e7420657260008201527f726f722e00000000000000000000000000000000000000000000000000000000602082015250565b61207681611e45565b811461208157600080fd5b50565b61208d81611e57565b811461209857600080fd5b50565b6120a481611e63565b81146120af57600080fd5b50565b6120bb81611e8d565b81146120c657600080fd5b50565b6120d281611e97565b81146120dd57600080fd5b5056fea26469706673582212203e01962cd4ae322b8dc1a83719419555150ed6c3a61289a71fe87b059ca13d2664736f6c63430008040033",
  "linkReferences": {},
  "deployedLinkReferences": {}
}