{
  "_format": "hh-sol-artifact-1",
  "contractName": "NullsEggManager",
  "sourceName": "contracts/v2/egg/NullsEggManager.sol",
  "abi": [
    {
      "anonymous": false,
      "inputs": [
        {
          "indexed": false,
          "internalType": "uint256",
          "name": "itemId",
          "type": "uint256"
        },
        {
          "indexed": false,
          "internalType": "bytes32",
          "name": "hv",
          "type": "bytes32"
        },
        {
          "indexed": false,
          "internalType": "bytes32",
          "name": "requestKey",
          "type": "bytes32"
        },
        {
          "indexed": false,
          "internalType": "uint256",
          "name": "deadline",
          "type": "uint256"
        }
      ],
      "name": "EggNewNonce",
      "type": "event"
    },
    {
      "anonymous": false,
      "inputs": [
        {
          "indexed": false,
          "internalType": "uint256",
          "name": "itemId",
          "type": "uint256"
        },
        {
          "indexed": false,
          "internalType": "address",
          "name": "pubkey",
          "type": "address"
        }
      ],
      "name": "NewEggItem",
      "type": "event"
    },
    {
      "anonymous": false,
      "inputs": [
        {
          "indexed": false,
          "internalType": "uint256",
          "name": "petid",
          "type": "uint256"
        },
        {
          "indexed": false,
          "internalType": "uint256",
          "name": "batchIndex",
          "type": "uint256"
        },
        {
          "indexed": false,
          "internalType": "uint256",
          "name": "item",
          "type": "uint256"
        },
        {
          "indexed": false,
          "internalType": "address",
          "name": "player",
          "type": "address"
        },
        {
          "indexed": false,
          "internalType": "bytes32",
          "name": "v",
          "type": "bytes32"
        },
        {
          "indexed": false,
          "internalType": "bytes32",
          "name": "rv",
          "type": "bytes32"
        },
        {
          "indexed": false,
          "internalType": "bytes32",
          "name": "requestKey",
          "type": "bytes32"
        }
      ],
      "name": "NewPet",
      "type": "event"
    },
    {
      "anonymous": false,
      "inputs": [
        {
          "indexed": false,
          "internalType": "address",
          "name": "user",
          "type": "address"
        },
        {
          "indexed": false,
          "internalType": "uint256",
          "name": "amount",
          "type": "uint256"
        }
      ],
      "name": "OpenEggBefore",
      "type": "event"
    },
    {
      "anonymous": false,
      "inputs": [
        {
          "indexed": true,
          "internalType": "address",
          "name": "previousOwner",
          "type": "address"
        },
        {
          "indexed": true,
          "internalType": "address",
          "name": "newOwner",
          "type": "address"
        }
      ],
      "name": "OwnershipTransferred",
      "type": "event"
    },
    {
      "anonymous": false,
      "inputs": [
        {
          "indexed": false,
          "internalType": "uint256",
          "name": "item",
          "type": "uint256"
        },
        {
          "indexed": false,
          "internalType": "address",
          "name": "player",
          "type": "address"
        },
        {
          "indexed": false,
          "internalType": "bytes32",
          "name": "hv",
          "type": "bytes32"
        },
        {
          "indexed": false,
          "internalType": "bytes32",
          "name": "key",
          "type": "bytes32"
        }
      ],
      "name": "ZKRandomMessage",
      "type": "event"
    },
    {
      "inputs": [],
      "name": "GodPetCount",
      "outputs": [
        {
          "internalType": "uint256",
          "name": "",
          "type": "uint256"
        }
      ],
      "stateMutability": "view",
      "type": "function"
    },
    {
      "inputs": [
        {
          "internalType": "address",
          "name": "",
          "type": "address"
        }
      ],
      "name": "GodPetProbability",
      "outputs": [
        {
          "internalType": "uint16",
          "name": "",
          "type": "uint16"
        }
      ],
      "stateMutability": "view",
      "type": "function"
    },
    {
      "inputs": [
        {
          "internalType": "uint256",
          "name": "total",
          "type": "uint256"
        },
        {
          "internalType": "address",
          "name": "token",
          "type": "address"
        }
      ],
      "name": "buy",
      "outputs": [],
      "stateMutability": "nonpayable",
      "type": "function"
    },
    {
      "inputs": [],
      "name": "getGodPetProbabilityValue",
      "outputs": [
        {
          "internalType": "uint16",
          "name": "val",
          "type": "uint16"
        }
      ],
      "stateMutability": "view",
      "type": "function"
    },
    {
      "inputs": [
        {
          "internalType": "address",
          "name": "token",
          "type": "address"
        }
      ],
      "name": "getPrice",
      "outputs": [
        {
          "internalType": "uint256",
          "name": "price",
          "type": "uint256"
        }
      ],
      "stateMutability": "view",
      "type": "function"
    },
    {
      "inputs": [],
      "name": "getSceneId",
      "outputs": [
        {
          "internalType": "uint256",
          "name": "sceneId",
          "type": "uint256"
        }
      ],
      "stateMutability": "view",
      "type": "function"
    },
    {
      "inputs": [
        {
          "internalType": "uint256",
          "name": "item",
          "type": "uint256"
        },
        {
          "internalType": "bytes32",
          "name": "key",
          "type": "bytes32"
        },
        {
          "internalType": "bytes32",
          "name": "rv",
          "type": "bytes32"
        }
      ],
      "name": "notify",
      "outputs": [
        {
          "internalType": "bool",
          "name": "",
          "type": "bool"
        }
      ],
      "stateMutability": "nonpayable",
      "type": "function"
    },
    {
      "inputs": [
        {
          "internalType": "uint256",
          "name": "total",
          "type": "uint256"
        },
        {
          "internalType": "uint256",
          "name": "itemId",
          "type": "uint256"
        },
        {
          "internalType": "uint256",
          "name": "deadline",
          "type": "uint256"
        }
      ],
      "name": "openMultiple",
      "outputs": [],
      "stateMutability": "nonpayable",
      "type": "function"
    },
    {
      "inputs": [],
      "name": "owner",
      "outputs": [
        {
          "internalType": "address",
          "name": "",
          "type": "address"
        }
      ],
      "stateMutability": "view",
      "type": "function"
    },
    {
      "inputs": [
        {
          "internalType": "address",
          "name": "pubkey",
          "type": "address"
        }
      ],
      "name": "registerItem",
      "outputs": [],
      "stateMutability": "nonpayable",
      "type": "function"
    },
    {
      "inputs": [],
      "name": "renounceOwnership",
      "outputs": [],
      "stateMutability": "nonpayable",
      "type": "function"
    },
    {
      "inputs": [
        {
          "internalType": "address",
          "name": "afterAddr",
          "type": "address"
        }
      ],
      "name": "setAfterProccess",
      "outputs": [],
      "stateMutability": "nonpayable",
      "type": "function"
    },
    {
      "inputs": [
        {
          "internalType": "address",
          "name": "addr",
          "type": "address"
        }
      ],
      "name": "setBigPrizePool",
      "outputs": [],
      "stateMutability": "nonpayable",
      "type": "function"
    },
    {
      "inputs": [
        {
          "internalType": "address",
          "name": "token",
          "type": "address"
        },
        {
          "internalType": "uint256",
          "name": "amount",
          "type": "uint256"
        }
      ],
      "name": "setBuyToken",
      "outputs": [],
      "stateMutability": "nonpayable",
      "type": "function"
    },
    {
      "inputs": [
        {
          "internalType": "uint16",
          "name": "val",
          "type": "uint16"
        }
      ],
      "name": "setGodPetProbabilityValue",
      "outputs": [],
      "stateMutability": "nonpayable",
      "type": "function"
    },
    {
      "inputs": [
        {
          "internalType": "address",
          "name": "eggToken",
          "type": "address"
        },
        {
          "internalType": "address",
          "name": "petToken",
          "type": "address"
        }
      ],
      "name": "setPetTokenAndEggToken",
      "outputs": [],
      "stateMutability": "nonpayable",
      "type": "function"
    },
    {
      "inputs": [
        {
          "internalType": "address",
          "name": "proxy",
          "type": "address"
        }
      ],
      "name": "setProxy",
      "outputs": [],
      "stateMutability": "nonpayable",
      "type": "function"
    },
    {
      "inputs": [
        {
          "internalType": "address",
          "name": "proxy",
          "type": "address"
        }
      ],
      "name": "setTransferProxy",
      "outputs": [],
      "stateMutability": "nonpayable",
      "type": "function"
    },
    {
      "inputs": [
        {
          "internalType": "address",
          "name": "newOwner",
          "type": "address"
        }
      ],
      "name": "transferOwnership",
      "outputs": [],
      "stateMutability": "nonpayable",
      "type": "function"
    }
  ],
  "bytecode": "0x60806040526001600d60146101000a81548160ff0219169083151502179055506000600d60156101000a81548161ffff021916908361ffff1602179055503480156200004a57600080fd5b506200006b6200005f6200007160201b60201c565b6200007960201b60201c565b6200013d565b600033905090565b60008060009054906101000a900473ffffffffffffffffffffffffffffffffffffffff169050816000806101000a81548173ffffffffffffffffffffffffffffffffffffffff021916908373ffffffffffffffffffffffffffffffffffffffff1602179055508173ffffffffffffffffffffffffffffffffffffffff168173ffffffffffffffffffffffffffffffffffffffff167f8be0079c531659141344cd1fd0a4f28419497f9722a3daafe3b4186f6b6457e060405160405180910390a35050565b612d2f806200014d6000396000f3fe608060405234801561001057600080fd5b50600436106101215760003560e01c80637deb6025116100ad57806397107d6d1161007157806397107d6d146102cc578063aa4af470146102e8578063ea0dd94e14610304578063f2fde38b14610320578063f5a1fd511461033c57610121565b80637deb60251461023c578063897b531f146102585780638ae42905146102765780638b1bfdae146102925780638da5cb5b146102ae57610121565b806341976e09116100f457806341976e09146101985780636103d7ef146101c85780636879ce0d146101e4578063715018a61461020257806377e100271461020c57610121565b806305e62e5714610126578063062755d71461014257806309322e561461015e578063180540d81461017c575b600080fd5b610140600480360381019061013b9190611e75565b61036c565b005b61015c60048036038101906101579190611e75565b61042c565b005b61016661059d565b60405161017391906125bf565b60405180910390f35b61019660048036038101906101919190611e75565b6105a3565b005b6101b260048036038101906101ad9190611e75565b610663565b6040516101bf91906125bf565b60405180910390f35b6101e260048036038101906101dd9190611e9e565b610728565b005b6101ec61082a565b6040516101f991906125bf565b60405180910390f35b61020a610834565b005b61022660048036038101906102219190611fcd565b6108bc565b60405161023391906123c3565b60405180910390f35b61025660048036038101906102519190611f91565b610bca565b005b610260610fd6565b60405161026d91906125a4565b60405180910390f35b610290600480360381019061028b9190611e75565b61106a565b005b6102ac60048036038101906102a79190611f3f565b61112a565b005b6102b66111c6565b6040516102c39190612287565b60405180910390f35b6102e660048036038101906102e19190611e75565b6111ef565b005b61030260048036038101906102fd9190611eda565b611362565b005b61031e6004803603810190610319919061201c565b61146c565b005b61033a60048036038101906103359190611e75565b611802565b005b61035660048036038101906103519190611e75565b6118fa565b60405161036391906125a4565b60405180910390f35b61037461191b565b73ffffffffffffffffffffffffffffffffffffffff166103926111c6565b73ffffffffffffffffffffffffffffffffffffffff16146103e8576040517f08c379a00000000000000000000000000000000000000000000000000000000081526004016103df90612524565b60405180910390fd5b80600560006101000a81548173ffffffffffffffffffffffffffffffffffffffff021916908373ffffffffffffffffffffffffffffffffffffffff16021790555050565b61043461191b565b73ffffffffffffffffffffffffffffffffffffffff166104526111c6565b73ffffffffffffffffffffffffffffffffffffffff16146104a8576040517f08c379a000000000000000000000000000000000000000000000000000000000815260040161049f90612524565b60405180910390fd5b6000600360009054906101000a900473ffffffffffffffffffffffffffffffffffffffff1673ffffffffffffffffffffffffffffffffffffffff166332d12a666007548460006040518463ffffffff1660e01b815260040161050c93929190612603565b602060405180830381600087803b15801561052657600080fd5b505af115801561053a573d6000803e3d6000fd5b505050506040513d601f19601f8201168201806040525081019061055e9190611f68565b90507f4a5b90f6d0091a3da8175d8fd20a6ad0a67b5be696fba6a48094eef48244298881836040516105919291906125da565b60405180910390a15050565b60085481565b6105ab61191b565b73ffffffffffffffffffffffffffffffffffffffff166105c96111c6565b73ffffffffffffffffffffffffffffffffffffffff161461061f576040517f08c379a000000000000000000000000000000000000000000000000000000000815260040161061690612524565b60405180910390fd5b80600460006101000a81548173ffffffffffffffffffffffffffffffffffffffff021916908373ffffffffffffffffffffffffffffffffffffffff16021790555050565b600080600960008473ffffffffffffffffffffffffffffffffffffffff1673ffffffffffffffffffffffffffffffffffffffff168152602001908152602001600020604051806040016040529081600082015481526020016001820160009054906101000a900460ff1615151515815250509050806020015161071b576040517f08c379a000000000000000000000000000000000000000000000000000000000815260040161071290612484565b60405180910390fd5b8060000151915050919050565b61073061191b565b73ffffffffffffffffffffffffffffffffffffffff1661074e6111c6565b73ffffffffffffffffffffffffffffffffffffffff16146107a4576040517f08c379a000000000000000000000000000000000000000000000000000000000815260040161079b90612524565b60405180910390fd5b81600160006101000a81548173ffffffffffffffffffffffffffffffffffffffff021916908373ffffffffffffffffffffffffffffffffffffffff16021790555080600260006101000a81548173ffffffffffffffffffffffffffffffffffffffff021916908373ffffffffffffffffffffffffffffffffffffffff1602179055505050565b6000600754905090565b61083c61191b565b73ffffffffffffffffffffffffffffffffffffffff1661085a6111c6565b73ffffffffffffffffffffffffffffffffffffffff16146108b0576040517f08c379a00000000000000000000000000000000000000000000000000000000081526004016108a790612524565b60405180910390fd5b6108ba6000611923565b565b6000600360009054906101000a900473ffffffffffffffffffffffffffffffffffffffff1673ffffffffffffffffffffffffffffffffffffffff163373ffffffffffffffffffffffffffffffffffffffff161461094e576040517f08c379a000000000000000000000000000000000000000000000000000000000815260040161094590612464565b60405180910390fd5b6000600c60008581526020019081526020016000205490506000600b600083815260200190815260200160002060405180608001604052908160008201548152602001600182015481526020016002820160009054906101000a900473ffffffffffffffffffffffffffffffffffffffff1673ffffffffffffffffffffffffffffffffffffffff1673ffffffffffffffffffffffffffffffffffffffff1681526020016002820160149054906101000a900460ff16151515158152505090506000816000015111610a54576040517f08c379a0000000000000000000000000000000000000000000000000000000008152600401610a4b90612544565b60405180910390fd5b80602001518614610a9a576040517f08c379a0000000000000000000000000000000000000000000000000000000008152600401610a9190612504565b60405180910390fd5b8060600151610ade576040517f08c379a0000000000000000000000000000000000000000000000000000000008152600401610ad5906124a4565b60405180910390fd5b60005b81600001518160ff161015610b1957610b058183602001518460400151888a6119e7565b508080610b11906128f9565b915050610ae1565b50600081606001901515908115158152505080600b6000848152602001908152602001600020600082015181600001556020820151816001015560408201518160020160006101000a81548173ffffffffffffffffffffffffffffffffffffffff021916908373ffffffffffffffffffffffffffffffffffffffff16021790555060608201518160020160146101000a81548160ff0219169083151502179055509050506001925050509392505050565b600033905060008311610c12576040517f08c379a0000000000000000000000000000000000000000000000000000000008152600401610c09906124e4565b60405180910390fd5b6000600960008473ffffffffffffffffffffffffffffffffffffffff1673ffffffffffffffffffffffffffffffffffffffff168152602001908152602001600020604051806040016040529081600082015481526020016001820160009054906101000a900460ff1615151515815250509050600115158160200151151514610cd0576040517f08c379a0000000000000000000000000000000000000000000000000000000008152600401610cc790612584565b60405180910390fd5b6000816000015185610ce29190612791565b90506000600a82610cf39190612760565b905060008183610d0391906127eb565b9050600660009054906101000a900473ffffffffffffffffffffffffffffffffffffffff1673ffffffffffffffffffffffffffffffffffffffff16630a1b0b918787610d4d6111c6565b866040518563ffffffff1660e01b8152600401610d6d94939291906122a2565b600060405180830381600087803b158015610d8757600080fd5b505af1158015610d9b573d6000803e3d6000fd5b50505050600660009054906101000a900473ffffffffffffffffffffffffffffffffffffffff1673ffffffffffffffffffffffffffffffffffffffff16630a1b0b918787600560009054906101000a900473ffffffffffffffffffffffffffffffffffffffff16856040518563ffffffff1660e01b8152600401610e2294939291906122a2565b600060405180830381600087803b158015610e3c57600080fd5b505af1158015610e50573d6000803e3d6000fd5b50505050600160009054906101000a900473ffffffffffffffffffffffffffffffffffffffff1673ffffffffffffffffffffffffffffffffffffffff166340c10f1986896040518363ffffffff1660e01b8152600401610eb1929190612310565b600060405180830381600087803b158015610ecb57600080fd5b505af1158015610edf573d6000803e3d6000fd5b50505050600073ffffffffffffffffffffffffffffffffffffffff16600460009054906101000a900473ffffffffffffffffffffffffffffffffffffffff1673ffffffffffffffffffffffffffffffffffffffff1614610fcd57600460009054906101000a900473ffffffffffffffffffffffffffffffffffffffff1673ffffffffffffffffffffffffffffffffffffffff16637f69b163868989876040518563ffffffff1660e01b8152600401610f9a9493929190612339565b600060405180830381600087803b158015610fb457600080fd5b505af1158015610fc8573d6000803e3d6000fd5b505050505b50505050505050565b6000610fe061191b565b73ffffffffffffffffffffffffffffffffffffffff16610ffe6111c6565b73ffffffffffffffffffffffffffffffffffffffff1614611054576040517f08c379a000000000000000000000000000000000000000000000000000000000815260040161104b90612524565b60405180910390fd5b600d60159054906101000a900461ffff16905090565b61107261191b565b73ffffffffffffffffffffffffffffffffffffffff166110906111c6565b73ffffffffffffffffffffffffffffffffffffffff16146110e6576040517f08c379a00000000000000000000000000000000000000000000000000000000081526004016110dd90612524565b60405180910390fd5b80600660006101000a81548173ffffffffffffffffffffffffffffffffffffffff021916908373ffffffffffffffffffffffffffffffffffffffff16021790555050565b61113261191b565b73ffffffffffffffffffffffffffffffffffffffff166111506111c6565b73ffffffffffffffffffffffffffffffffffffffff16146111a6576040517f08c379a000000000000000000000000000000000000000000000000000000000815260040161119d90612524565b60405180910390fd5b80600d60156101000a81548161ffff021916908361ffff16021790555050565b60008060009054906101000a900473ffffffffffffffffffffffffffffffffffffffff16905090565b6111f761191b565b73ffffffffffffffffffffffffffffffffffffffff166112156111c6565b73ffffffffffffffffffffffffffffffffffffffff161461126b576040517f08c379a000000000000000000000000000000000000000000000000000000000815260040161126290612524565b60405180910390fd5b80600360006101000a81548173ffffffffffffffffffffffffffffffffffffffff021916908373ffffffffffffffffffffffffffffffffffffffff160217905550600360009054906101000a900473ffffffffffffffffffffffffffffffffffffffff1673ffffffffffffffffffffffffffffffffffffffff166363cb85e1306040518263ffffffff1660e01b81526004016113079190612287565b602060405180830381600087803b15801561132157600080fd5b505af1158015611335573d6000803e3d6000fd5b505050506040513d601f19601f820116820180604052508101906113599190611f68565b60078190555050565b61136a61191b565b73ffffffffffffffffffffffffffffffffffffffff166113886111c6565b73ffffffffffffffffffffffffffffffffffffffff16146113de576040517f08c379a00000000000000000000000000000000000000000000000000000000081526004016113d590612524565b60405180910390fd5b6000604051806040016040528083815260200160011515815250905080600960008573ffffffffffffffffffffffffffffffffffffffff1673ffffffffffffffffffffffffffffffffffffffff1681526020019081526020016000206000820151816000015560208201518160010160006101000a81548160ff021916908315150217905550905050505050565b60008311801561147d575060148311155b6114bc576040517f08c379a00000000000000000000000000000000000000000000000000000000081526004016114b3906124c4565b60405180910390fd5b804211156114ff576040517f08c379a00000000000000000000000000000000000000000000000000000000081526004016114f690612564565b60405180910390fd5b600660009054906101000a900473ffffffffffffffffffffffffffffffffffffffff1673ffffffffffffffffffffffffffffffffffffffff16630a1b0b91600160009054906101000a900473ffffffffffffffffffffffffffffffffffffffff163330876040518563ffffffff1660e01b815260040161158294939291906122a2565b600060405180830381600087803b15801561159c57600080fd5b505af11580156115b0573d6000803e3d6000fd5b5050505060008383836115c233611d75565b466040516020016115d79594939291906123fe565b6040516020818303038152906040528051906020012090506000600360009054906101000a900473ffffffffffffffffffffffffffffffffffffffff1673ffffffffffffffffffffffffffffffffffffffff16635d23b9c485846040518363ffffffff1660e01b815260040161164e92919061263a565b602060405180830381600087803b15801561166857600080fd5b505af115801561167c573d6000803e3d6000fd5b505050506040513d601f19601f820116820180604052508101906116a09190611f16565b905081600c60008381526020019081526020016000208190555060405180608001604052808681526020018581526020013373ffffffffffffffffffffffffffffffffffffffff16815260200160011515815250600b6000848152602001908152602001600020600082015181600001556020820151816001015560408201518160020160006101000a81548173ffffffffffffffffffffffffffffffffffffffff021916908373ffffffffffffffffffffffffffffffffffffffff16021790555060608201518160020160146101000a81548160ff0219169083151502179055509050507f9f16b1ef80922be7ee302caa3c5b78718e3aef09727e2cd036a2817276134ba2848383866040516117ba9493929190612663565b60405180910390a17f37b8e75e540ed2d2b4a6f91701ca0725f7a505cc65a71b93a1df23b6aaa08f9833866040516117f3929190612310565b60405180910390a15050505050565b61180a61191b565b73ffffffffffffffffffffffffffffffffffffffff166118286111c6565b73ffffffffffffffffffffffffffffffffffffffff161461187e576040517f08c379a000000000000000000000000000000000000000000000000000000000815260040161187590612524565b60405180910390fd5b600073ffffffffffffffffffffffffffffffffffffffff168173ffffffffffffffffffffffffffffffffffffffff1614156118ee576040517f08c379a00000000000000000000000000000000000000000000000000000000081526004016118e5906123de565b60405180910390fd5b6118f781611923565b50565b600e6020528060005260406000206000915054906101000a900461ffff1681565b600033905090565b60008060009054906101000a900473ffffffffffffffffffffffffffffffffffffffff169050816000806101000a81548173ffffffffffffffffffffffffffffffffffffffff021916908373ffffffffffffffffffffffffffffffffffffffff1602179055508173ffffffffffffffffffffffffffffffffffffffff168173ffffffffffffffffffffffffffffffffffffffff167f8be0079c531659141344cd1fd0a4f28419497f9722a3daafe3b4186f6b6457e060405160405180910390a35050565b60008084868886604051602001611a01949392919061237e565b60405160208183030381529060405280519060200120905060206008541015611a5c5760f88160f81c60ff1610611a5b577fff0000000000000000000000000000000000000000000000000000000000000060001b811790505b5b6000600d60159054906101000a900461ffff1661ffff1614611c4f5760ff8160f81c60ff1614611bf2576001600e60008773ffffffffffffffffffffffffffffffffffffffff1673ffffffffffffffffffffffffffffffffffffffff16815260200190815260200160002060008282829054906101000a900461ffff16611ae39190612728565b92506101000a81548161ffff021916908361ffff160217905550600d60159054906101000a900461ffff1661ffff16600e60008773ffffffffffffffffffffffffffffffffffffffff1673ffffffffffffffffffffffffffffffffffffffff16815260200190815260200160002060009054906101000a900461ffff1661ffff1610611bed576000600e60008773ffffffffffffffffffffffffffffffffffffffff1673ffffffffffffffffffffffffffffffffffffffff16815260200190815260200160002060006101000a81548161ffff021916908361ffff1602179055507fff0000000000000000000000000000000000000000000000000000000000000060001b811790505b611c4e565b6000600e60008773ffffffffffffffffffffffffffffffffffffffff1673ffffffffffffffffffffffffffffffffffffffff16815260200190815260200160002060006101000a81548161ffff021916908361ffff1602179055505b5b60ff8160f81c60ff161415611c775760086000815480929190611c71906128b0565b91905055505b600260009054906101000a900473ffffffffffffffffffffffffffffffffffffffff1673ffffffffffffffffffffffffffffffffffffffff16632cfd300586836040518363ffffffff1660e01b8152600401611cd49291906122e7565b602060405180830381600087803b158015611cee57600080fd5b505af1158015611d02573d6000803e3d6000fd5b505050506040513d601f19601f82011682018060405250810190611d269190611f68565b91507f9380633861ad2a152fed2d9b4621b58520da9a98b8462c052a8b3b62c176484a82888888858989604051611d6397969594939291906126a8565b60405180910390a15095945050505050565b600080600a60008473ffffffffffffffffffffffffffffffffffffffff1673ffffffffffffffffffffffffffffffffffffffff1681526020019081526020016000209050611dc281611dd3565b9150611dcd81611de1565b50919050565b600081600001549050919050565b6001816000016000828254019250508190555050565b600081359050611e0681612c9d565b92915050565b600081359050611e1b81612cb4565b92915050565b600081519050611e3081612cb4565b92915050565b600081359050611e4581612ccb565b92915050565b600081359050611e5a81612ce2565b92915050565b600081519050611e6f81612ce2565b92915050565b600060208284031215611e8757600080fd5b6000611e9584828501611df7565b91505092915050565b60008060408385031215611eb157600080fd5b6000611ebf85828601611df7565b9250506020611ed085828601611df7565b9150509250929050565b60008060408385031215611eed57600080fd5b6000611efb85828601611df7565b9250506020611f0c85828601611e4b565b9150509250929050565b600060208284031215611f2857600080fd5b6000611f3684828501611e21565b91505092915050565b600060208284031215611f5157600080fd5b6000611f5f84828501611e36565b91505092915050565b600060208284031215611f7a57600080fd5b6000611f8884828501611e60565b91505092915050565b60008060408385031215611fa457600080fd5b6000611fb285828601611e4b565b9250506020611fc385828601611df7565b9150509250929050565b600080600060608486031215611fe257600080fd5b6000611ff086828701611e4b565b935050602061200186828701611e0c565b925050604061201286828701611e0c565b9150509250925092565b60008060006060848603121561203157600080fd5b600061203f86828701611e4b565b935050602061205086828701611e4b565b925050604061206186828701611e4b565b9150509250925092565b6120748161281f565b82525050565b61208381612831565b82525050565b6120928161283d565b82525050565b6120a18161288c565b82525050565b60006120b4602683612717565b91506120bf82612981565b604082019050919050565b60006120d7600983612717565b91506120e2826129d0565b602082019050919050565b60006120fa602283612717565b9150612105826129f9565b604082019050919050565b600061211d602283612717565b915061212882612a48565b604082019050919050565b6000612140602a83612717565b915061214b82612a97565b604082019050919050565b6000612163602383612717565b915061216e82612ae6565b604082019050919050565b6000612186601e83612717565b915061219182612b35565b602082019050919050565b60006121a9602883612717565b91506121b482612b5e565b604082019050919050565b60006121cc602083612717565b91506121d782612bad565b602082019050919050565b60006121ef602f83612717565b91506121fa82612bd6565b604082019050919050565b6000612212602183612717565b915061221d82612c25565b604082019050919050565b6000612235602083612717565b915061224082612c74565b602082019050919050565b61225481612847565b82525050565b61226381612875565b82525050565b6122728161289e565b82525050565b6122818161287f565b82525050565b600060208201905061229c600083018461206b565b92915050565b60006080820190506122b7600083018761206b565b6122c4602083018661206b565b6122d1604083018561206b565b6122de606083018461225a565b95945050505050565b60006040820190506122fc600083018561206b565b6123096020830184612089565b9392505050565b6000604082019050612325600083018561206b565b612332602083018461225a565b9392505050565b600060808201905061234e600083018761206b565b61235b602083018661225a565b612368604083018561206b565b612375606083018461225a565b95945050505050565b6000608082019050612393600083018761206b565b6123a0602083018661225a565b6123ad6040830185612278565b6123ba6060830184612089565b95945050505050565b60006020820190506123d8600083018461207a565b92915050565b600060208201905081810360008301526123f7816120a7565b9050919050565b600060c0820190508181036000830152612417816120ca565b9050612426602083018861225a565b612433604083018761225a565b612440606083018661225a565b61244d608083018561225a565b61245a60a083018461225a565b9695505050505050565b6000602082019050818103600083015261247d816120ed565b9050919050565b6000602082019050818103600083015261249d81612110565b9050919050565b600060208201905081810360008301526124bd81612133565b9050919050565b600060208201905081810360008301526124dd81612156565b9050919050565b600060208201905081810360008301526124fd81612179565b9050919050565b6000602082019050818103600083015261251d8161219c565b9050919050565b6000602082019050818103600083015261253d816121bf565b9050919050565b6000602082019050818103600083015261255d816121e2565b9050919050565b6000602082019050818103600083015261257d81612205565b9050919050565b6000602082019050818103600083015261259d81612228565b9050919050565b60006020820190506125b9600083018461224b565b92915050565b60006020820190506125d4600083018461225a565b92915050565b60006040820190506125ef600083018561225a565b6125fc602083018461206b565b9392505050565b6000606082019050612618600083018661225a565b612625602083018561206b565b6126326040830184612098565b949350505050565b600060408201905061264f600083018561225a565b61265c6020830184612089565b9392505050565b6000608082019050612678600083018761225a565b6126856020830186612089565b6126926040830185612089565b61269f606083018461225a565b95945050505050565b600060e0820190506126bd600083018a61225a565b6126ca6020830189612269565b6126d7604083018861225a565b6126e4606083018761206b565b6126f16080830186612089565b6126fe60a0830185612089565b61270b60c0830184612089565b98975050505050505050565b600082825260208201905092915050565b600061273382612847565b915061273e83612847565b92508261ffff0382111561275557612754612923565b5b828201905092915050565b600061276b82612875565b915061277683612875565b92508261278657612785612952565b5b828204905092915050565b600061279c82612875565b91506127a783612875565b9250817fffffffffffffffffffffffffffffffffffffffffffffffffffffffffffffffff04831182151516156127e0576127df612923565b5b828202905092915050565b60006127f682612875565b915061280183612875565b92508282101561281457612813612923565b5b828203905092915050565b600061282a82612855565b9050919050565b60008115159050919050565b6000819050919050565b600061ffff82169050919050565b600073ffffffffffffffffffffffffffffffffffffffff82169050919050565b6000819050919050565b600060ff82169050919050565b60006128978261287f565b9050919050565b60006128a98261287f565b9050919050565b60006128bb82612875565b91507fffffffffffffffffffffffffffffffffffffffffffffffffffffffffffffffff8214156128ee576128ed612923565b5b600182019050919050565b60006129048261287f565b915060ff82141561291857612917612923565b5b600182019050919050565b7f4e487b7100000000000000000000000000000000000000000000000000000000600052601160045260246000fd5b7f4e487b7100000000000000000000000000000000000000000000000000000000600052601260045260246000fd5b7f4f776e61626c653a206e6577206f776e657220697320746865207a65726f206160008201527f6464726573730000000000000000000000000000000000000000000000000000602082015250565b7f6e756c6c732e6567670000000000000000000000000000000000000000000000600082015250565b7f4e756c6c734567674d616e616765722f4973206e6f742066726f6d2070726f7860008201527f792e000000000000000000000000000000000000000000000000000000000000602082015250565b7f4e756c6c734567674d616e616765722f556e737570706f7274656420746f6b6560008201527f6e2e000000000000000000000000000000000000000000000000000000000000602082015250565b7f4e756c6c734567674d616e616765722f446f206e6f742072657065617420636f60008201527f6e73756d7074696f6e2e00000000000000000000000000000000000000000000602082015250565b7f4e756c6c734567674d616e616765722f55736520312d3230206174206120746960008201527f6d652e0000000000000000000000000000000000000000000000000000000000602082015250565b7f4e756c6c734567674d616e616765722f546f74616c206973207a65726f2e0000600082015250565b7f4e756c6c734567674d616e616765722f4974656d20766572696669636174696f60008201527f6e206661696c6564000000000000000000000000000000000000000000000000602082015250565b7f4f776e61626c653a2063616c6c6572206973206e6f7420746865206f776e6572600082015250565b7f4e756c6c734567674d616e616765722f5468652064617461206f627461696e6560008201527f64206279204856206973206e756c6c0000000000000000000000000000000000602082015250565b7f4e756c6c734567674d616e616765723a206578706972656420646561646c696e60008201527f6500000000000000000000000000000000000000000000000000000000000000602082015250565b7f4e756c6c734567674d616e616765722f4e6f7420616c6c6f7720746f6b656e2e600082015250565b612ca68161281f565b8114612cb157600080fd5b50565b612cbd8161283d565b8114612cc857600080fd5b50565b612cd481612847565b8114612cdf57600080fd5b50565b612ceb81612875565b8114612cf657600080fd5b5056fea264697066735822122097e2b61338a1a24002189a036aa90e6b80170a1a062c768a26ede63e77a5cddd64736f6c63430008040033",
  "linkReferences": {},
  "deployedLinkReferences": {}
}